:020000022000DC
:10600000D031002025A2020037030300F9A10200CD
:10601000F9A10200F9A10200F9A1020000000000AC
:10602000000000000000000000000000619B020072
:10603000F9A1020000000000199B0200F9A1020072
:10604000DD9B0200DD9B0200DD9B0200DD9B020068
:10605000DD9B0200DD9B0200DD9B0200DD9B020058
:10606000DD9B0200DD9B0200DD9B0200DD9B020048
:10607000DD9B0200DD9B0200DD9B0200DD9B020038
:10608000DD9B0200DD9B0200DD9B0200DD9B020028
:10609000DD9B0200DD9B0200DD9B0200DD9B020018
:1060A000DD9B0200DD9B0200DD9B0200DD9B020008
:1060B000DD9B0200DD9B0200DD9B0200DD9B0200F8
:1060C000DD9B0200DD9B0200DD9B0200DD9B0200E8
:1060D000DD9B0200DD9B0200DD9B0200DD9B0200D8
:1060E000DD9B0200DD9B0200DD9B0200DD9B0200C8
:1060F000DD9B0200DD9B0200DD9B0200DD9B0200B8
:1061000053B94AB9002908BF00281CBF4FF0FF311E
:106110004FF0FF3000F00CB8ADF1080C6DE904CE83
:1061200000F008F8DDF804E0DDE9022304B0704770
:10613000704700BF2DE9F04786468C460846089E0A
:10614000154674461946002B40F0C2808542B2FACB
:1061500082F245D94AB1C2F1200300FA02FC2EFABC
:1061600003F3954043EA0C0C94404FEA154EA8B255
:10617000BCFBFEF8230C0EFB18CC08FB00F943EA2D
:106180000C43994528D9EB1808F1FF3704D29945FB
:1061900002D9A8F102072B44A3EB0903A4B2B3FB75
:1061A000FEFC0EFB1C330CFB00F044EA0344A0424F
:1061B00014D92C190CF1FF3304D2A04202D9ACF14E
:1061C00002032C44241A43EA07401EB1D4400023A2
:1061D00034607360BDE8F0874746DDE76346F1E76A
:1061E00092BB431B01214FEA154EAFB2B3FBFEFC3D
:1061F000200C0EFB1C330CFB07F840EA03439845C8
:1062000062D9EB180CF1FF3004D2984502D9ACF1F9
:1062100002002B44A3EB0803A4B2B3FBFEFC0EFB6D
:106220001C330CFB07F744EA0344A7424ED92C1950
:106230000CF1FF3304D2A74202D9ACF102032C4483
:10624000E41B43EA0040C0E7C2F1200320FA03F157
:10625000954090402EFA03F303434FEA154EAFB238
:10626000B1FBFEFC0EFB1C10190C0CFB07F841EAFD
:106270000041884504FA02F422D969180CF1FF3074
:1062800004D2884502D9ACF102002944A1EB0801EF
:106290009BB2B1FBFEFC0EFB1C110CFB07F743EAA3
:1062A00001439F420ED9EB180CF1FF3104D29F42FB
:1062B00002D9ACF102012B44DB1B41EA004192E719
:1062C0006046E3E76146F7E76046A3E76346B7E762
:1062D000834206D916B9002108467BE7C6E900E0EB
:1062E000F9E7B3FA83F78FB9834201D3724508D82F
:1062F000BEEB020460EB030301209C461EB90021A3
:1063000068E73846FAE7C6E9004CF8E7C7F1200C21
:10631000BB4022FA0CF41C432EFA0CF120FA0CF3C9
:10632000B84001434FEA14490EFA07F5B3FBF9F8F8
:106330001FFA84FE09FB18300B0C08FB0EFA43EA27
:1063400000439A4502FA07F240D9E31808F1FF30FA
:1063500004D29A4502D9A8F102002344A3EB0A0310
:1063600089B2B3FBF9F809FB183308FB0EFE41EACA
:1063700003418E452CD9611808F1FF3304D28E45B4
:1063800002D9A8F10203214443EA0040A0FB02988D
:10639000A1EB0E014145CE46434602D306D14D4501
:1063A00004D2B9EB020E68EB04030138002EA6D02C
:1063B000B5EB0E0261EB030101FA0CFC22FA07F3C4
:1063C0004CEA0303F940C6E9003198E74046C5E7C7
:1063D0004346D9E72DE9F04F89B065480AF0B4FA91
:1063E00058B364480AF0B0FA38B362480AF0ACFA1D
:1063F00018B3614808F0E9FE0446604808F0E5FE7D
:1064000005465F4808F0E1FE2C4316D1002814DB56
:106410001422214603A809F0AAFF0DF106030593F3
:10642000584D0223069355F8066C30460AF08CFA54
:1064300038B93168544808F055FF002009B0BDE86C
:10644000F08F15F8013C63B155F8060C83682946B6
:106450001B689847021E07DA4C48214608F042FFA5
:10646000EBE76FF08502F7E70134032C05F1140523
:10647000D9D100214648474CDFF81CA1DFF81CB1F8
:106480004F1C08F02FFF3C4808F0B9FE3B4808F0CD
:10649000B6FE3B4808F0B3FE00252646D4F800803F
:1064A00094F80490D8F800103D484A4608F01AFFC6
:1064B000617949B1227C8DF81C200121627C8DF824
:1064C0001D2001FA09F10491D8F8082003A95268A7
:1064D00040469047011E03DA324808F003FF13E0FC
:1064E000142202FB0562BDF80630927A92064CBF78
:1064F0000FFA83F898464146504608F0F3FE627959
:1065000072B9294808F0EEFE0135032D04F1140498
:10651000C4D100214FF4004008F05EFB3946A9E7E2
:10652000E27994F81090042A0ABF2268E1899268FF
:106530004FF0140000FB056008BF1189807A08FB4A
:1065400001F1830648BF09F1FF320291A07902A947
:1065500048BF5FFA82F904F097FE002805D1029B3C
:1065600043FA09F841465846B7E7CADBFAE700BFE5
:10657000EC10030000110300C4130300BC1303005C
:10658000B41303007E130300081603002C16030047
:106590004E1603007813030021200300A616030003
:1065A0006016030073160300881603002DE9F04FF0
:1065B00091B08407009302F004030293C2F3C20374
:1065C00003F10103DDF86880039205460E4605934A
:1065D00040F0BE81041D30B1072909D86FF01B00BF
:1065E00011B0BDE8F08F01F00706341DC6F10806B2
:1065F000009B4FF00009591E4FF0040A4FF0FF3383
:106600000193CDF810904F46CB4653460DB1009AFA
:1066100022600598002800F3EB809A48009A824295
:1066200003D399488242C0F0E380039AA4EB050E9D
:1066300092074FEA9E0000F106810F2F00F2B4800E
:10664000002D00F0088107F140020DEB020C019AC9
:106650000CF8200C0CF8102C049801300490EAE09F
:106660007A2860D84B280ED847285CD829282FD8FC
:10667000252855D057D820287DD02338D0F1000BBD
:106680004BEB000B77E0A0F14C0CBCF12E0F4AD87D
:10669000DFE80CF0714949494949494949494949A3
:1066A0004C49494949494949495A494C4C5A5A5A0D
:1066B000714C6E497149184C18494983804C4949BD
:1066C0004C49800000204FF0000B4FF0040A39E0E5
:1066D000A0F12A0C5FFA8CFC012202FA0CFC1CEAE5
:1066E0000E0F48D11CF062502ED11CEA020B42D092
:1066F000013C5444CAF1000C04EA0C04002D61D0A2
:10670000A3EB050CA444B4453FF668AF002868D15C
:10671000042B47D158F8043B2360043404232AE0B7
:10672000019A013A01924FF0000B24E011F8010C9C
:106730006C2834D111F8023C00206C2B8346C4D164
:106740004FF0080A5346D3E708F1070828F0070876
:106750000734F8E802AB24F0070435B1069820446A
:10676000B0423FF63BAFC4E900AB08344FF0000B3A
:106770004FF0080A534611F8010F002878D0BBF1FA
:10678000000F7FF46DAF2528F5D1019B01330193F4
:106790004FF0010B4FF0040AECE7584693E7002056
:1067A0008346A5E7082B02D06FF0150018E708F123
:1067B000070828F00708F8E80223C4E90023083492
:1067C0000823D8E768B9042B02D108F10408A4E72C
:1067D000082BE9D108F1070828F0070808F1080894
:1067E000EDE7059A013A059258F8042B00920DE75F
:1067F000039A900720D5A4EB050E4FEA9E004FF0B8
:10680000010CBEF5007FCFD20F2FCDD8F5B107F127
:1068100040020DEB020EC0B2019A0EF8200C0EF8E9
:10682000102CBCF1000F3FF417AF60F07F000EF8A2
:10683000200C09F101090137C5F108020434069260
:106840004FF6DA7E97E74FF0000CDAE7BCF1000F65
:1068500001D00136EFE7029802360028EBD100980C
:10686000CDE9063109F071FDDDE906310644E2E7C4
:10687000631BB3F5806F97D245B9A6F10804E01801
:10688000AEE600BF60100300D0240300029A286027
:106890009B082B709DF81030C2B1EB7085F8029008
:1068A000B9F1000F05D008A80022C5F1010C9742EC
:1068B0000ED1C5F101030DF120084FF0000A01933C
:1068C0000DF1300B574512D1601B89E66B70E5E77F
:1068D00010F8013B190608D504EB0C0EB64503F081
:1068E0007F033FF67BAE04F8013B0132DFE7B9F1ED
:1068F000000F03D098F90020002A17DB029BD3B1C8
:106900001AF80B2004F8012B0022019B9818204450
:10691000B0423FF663AE98F8000004F8010B00990E
:106920000392204609F018FD039A14440AF1010A63
:1069300008F10108C6E798F8002055F822300093C6
:10694000029B45F82230009809F0FFFC421CDCE76E
:106950006FF00D0044E600BF2DE9F04F95B000AF99
:106960000446D7F878B0BB61CBF3C0037A623B61D1
:10697000396251B903784678807800EB830020446F
:106980003B6A9E421AD8031B3B6294F802A0E3784C
:106990007B615646BAF1000F02D01BF0010F17D1F0
:1069A0007B695BBB7B6A1BB1BA69396A2046984731
:1069B0003D6A28465437BD46BDE8F08F451C284641
:1069C00009F0C3FC3B6A0130013328443B62D7E73E
:1069D00094F800806368FB617B6A4FEA8802FA6082
:1069E00004EB8808002B40F001813D6AC1460AEBA8
:1069F000080300264B454ED1D04413E01BF0020F94
:106A0000D0D094F800804FEA8803FB606368FB6194
:106A10007B6A04EB8808002B78D13D6ABAF1000F3D
:106A20004ED156461BF0050F0CBF022301237B629B
:106A30007B6908EB430A0BF002033B62D045B8D0F8
:106A400018F8021B18F8013C54F82390AC4B9945F8
:106A500002D3AC4B994539D33B69002B43D0F8693D
:106A600008F006FC00283ED0E9468AB06A46A64BEC
:106A70005361FB69C2E906314FF400731384A34BE1
:106A800042F8103FA24800234FF4125101F0B6F82B
:106A9000023DCD46D2E719F8012B7B6254F8220063
:106AA00009F053FCFA6F7B6A01303AB1D7F88020C5
:106AB00096423EBFFA6F22F816000136054499E768
:106AC0001BF004061CBF7E6AD044ABE73B6923B1D0
:106AD000F86908F0CDFB0028C6D11BF0010F05D1E5
:106AE0007B6AED1AAAE73B6A002BA7D0484609F05B
:106AF0002CFCFB6F43B1D7F880309E423FBFFA6F4A
:106B0000431C22F816300136054497E7BAF1000F0E
:106B100071D01BF0040671D0D146002607F1400069
:106B20005246414609F018FC7B695B00BB607B69FB
:106B3000D04408EB43037B610BF002037B607B696D
:106B400098455DD12378FB6163781BF0020F06EB5B
:106B500003020CBF4FEA590100211BF0010FD2B212
:106B600040F09D801BF0040F14BF4846002094F8AD
:106B700002B094F803803B616270A070E170BA6962
:106B8000F9687B6A20469847051EFFF612AFFB693D
:106B900023703B69637084F80380BA697B6A84F868
:106BA00002B0494607F140009847B0F10008C0F232
:106BB000A3803B6ABA697869A3EB0A01FB68C91A2A
:106BC000BB68C91A7B6A98470028C0F29780A8441E
:106BD00008EB00054FF0000B07F1300AB34560D316
:106BE0000021BA697B6A08469847E2E64FF000093F
:106BF00007F1300094E75646D14695E7B14693E752
:106C000018F8021B3E4A18F8015C54F825309342EC
:106C100002D33C4A93421CD33B6923B1F86908F084
:106C200027FB00288BD17B68F3B909F1280207F113
:106C30002800024409F1010302F8101C07F1500278
:106C400052FA83F309F102095FFA89F903F8105C3B
:106C500075E73B692BB1F86908F00AFB00287FF45F
:106C60006EAF1BF0010F09D006F1280207F12801D1
:106C7000731C561806F8205CDEB260E71BF0040FA8
:106C80003FF45DAF09F1280207F1280109F1010382
:106C900002EB010909F8105C5FFA83F94FE7002065
:106CA00065E71BF80A3087F82F3054F82390FB6F04
:106CB000FBB133F81B80BA697B6A012107F12F0011
:106CC000984700281ADB0544B8F1000F06D1484662
:106CD00009F03BFB00F101081FFA88F8BA697B6AEA
:106CE000414648469847002808DB05440BF1010B54
:106CF00074E7D7F87C80DEE745465AE6054658E655
:106D000060100300D0240300B0160300040000014B
:106D1000DC120300014B1860704700BF50010020D7
:106D200030B587B00025CDE903010446009503A9DD
:106D30000548059500F018F9DDE904309842B8BF20
:106D4000255407B030BD00BFBFF202002DE9F04767
:106D5000058B04462807904611D4022905F0070543
:106D600040F0CD80204608F0C1FC78B10138218B7D
:106D7000042811D8DFE800F0C3106D8595000129C3
:106D80000CBF45F0100545F02005258388F31188D8
:106D9000BFF36F8FBDE8F08701F0070AAA4500F046
:106DA000A6800027B9463E46A368002B00F0BD80B0
:106DB00041F00801218388F31188BFF36F8FA16828
:106DC000002900F0BB800D68002900F0B780D1F8E1
:106DD0000480334652462046C047002D76D02B68AB
:106DE00029461D46F0E701F007035A1F012A1BD868
:106DF000002221F00701062B276889B2C4E900228E
:106E000009D13B4603E0628B013262831B68002B91
:106E1000F9D141F002012183204608F067FC0028E7
:106E20007BD041F0200177E0042B0AD121F007014B
:106E300089B22183204608F059FC10B141F02001AD
:106E40002183218B01F0070AAA4550D00027B946BB
:106E5000AAE7236921F0070141F00601062DD3F8C6
:106E6000009021832DD1B9F1000F40D041F00801ED
:106E7000218388F31188BFF36F8F3A492046C847B2
:106E800029E021F00701236941F0040189B2042DB2
:106E9000D3F804902183E6D000273E464FF0040A41
:106EA00082E721F00701236941F0050189B2052D30
:106EB000D3F808902183D6D000273E464FF0050A2C
:106EC00072E700273E464FF0060A6DE72B4687E73C
:106ED000B9F1000FD1D14FF02003EFF3118883F304
:106EE0001288BFF36F8F238B23F008032383258B36
:106EF000EA062ED525F01003238305F00705666901
:106F0000218B002EBFF66FAF00232768C4E9003342
:106F100021F0070141F001012183218B01F0070AD3
:106F2000AA454FF000097FF43FAF002F9BD041F0FE
:106F30000801218388F31188BFF36F8F002FC7D01A
:106F40003D68394633465246204608F0FBFB2F4643
:106F5000F4E7AB067FF51AAF25F02003238305F095
:106F60000705FFE671F702002DE9F04F814695B065
:106F70008B4617461C460025387808B9284658E342
:106F80007B1C2528039306D05946C8470028C0F229
:106F900050830135FBE1182200210EA809F0E7F922
:106FA0007B78252B7DD00023781C98469E469C46F6
:106FB0001E46014610F8012B2B2A00F0A18000F29A
:106FC0009880202A00F09F80232A00F09F802BB118
:106FD0009DF8403043F040038DF84030B8F1000F89
:106FE00005D09DF8403043F020038DF84030BEF1CD
:106FF000000F05D09DF8403043F010038DF840306D
:10700000BCF1000F05D09DF8403043F008038DF827
:1070100040302EB19DF8403043F004038DF84030ED
:107020009DF8403003F04400442803D16FF38613E9
:107030008DF840309DF840302A2A43F080038DF8C7
:1070400040307FD19DF8412042F001024B1C8DF869
:1070500041201A782E2A9DF841200CBF01210021E1
:1070600061F341028DF8412078D15A782A2A6ED0F6
:10707000013300224FF00A0C194611F8010BA0F160
:107080003006092E40F295809DF840101292C1F30F
:10709000400040EAD2700A4660F341028DF8402079
:1070A0005CE0BA1C03928DF843309DF84130DA075A
:1070B00040F12E8154F8048BB8F1000F07DA9DF8E7
:1070C000402042F004028DF84020C8F100085E071D
:1070D00040F1278154F804ABBAF1000F80F2268109
:1070E0009DF841306FF341038DF841304FF0FF3A86
:1070F0001CE12D2A0DD0302A7FF469AF012358E717
:107100004FF0010C55E74FF0010E52E74FF0010828
:107110004FE701264DE70EFB0262303A0346184660
:1071200010F8016BA6F1300CBCF1090FF3D99942AC
:107130008FD09DF840101192D20F62F341018DF86B
:10714000401086E70B4600224FF00A0EE7E79DF855
:10715000412042F004028DF8412002331A786C2A53
:1071600047D02BD8682A31D06A2A4BD04C2A51D02C
:107170001A4612F8013B0392782B9DF841208DF8B6
:10718000433000F2BE806D2B51D8692B00F2B980DC
:10719000572B67D8412B03D0453B022B00F2B1801F
:1071A0009DF84230042262F302038DF8423001233D
:1071B00073E00CFB0202303A0B465DE7742A25D0DF
:1071C0007A2AD5D19DF8412006210CE05A78682A08
:1071D0009DF8412006D1012161F3C6028DF84120BE
:1071E0000233C5E7022161F3C6028DF84120013365
:1071F000BEE75A786C2A9DF8412001D10421EBE7C3
:107200000321F0E79DF841200521ECE79DF841209E
:107210000721E8E7BDF8402022F4F04222F0020204
:1072200042F4804242F00202ADF84020DFE76E3BBC
:10723000D9B201238B4040F282410B4237D113F087
:10724000240F51D1D8075CD59DF84230032161F35A
:1072500002038DF8423002F07803A3F140014B4263
:107260004B411AE0A3F15801C9B2012000FA01F123
:1072700011F4624F94D140F6010631421DD111F450
:10728000043F3ED09DF8423060F3020302F07802E2
:10729000402A8DF8423034D000239DF84020C2F3BC
:1072A00040010B4363F341028DF84020FDE69DF859
:1072B0004230022161F30203E8E79DF84210022008
:1072C00002F0780260F30201402A8DF8421002BFFA
:1072D0009DF8401041F001018DF84010632BDBD187
:1072E000131E18BF0123D8E79DF84230032161F334
:1072F000020312F0780F8DF8423014BF01230023EF
:10730000CBE79DF8403043F001038DF84030C3E7F0
:107310009DF94020002AB4BFDDF844804FF0FF38CB
:10732000D5E698077FF5E2AEDDF848A09DF841105C
:107330000023CDE911339DF8423003F00703012B00
:10734000C1F3C30133D1CB1E042B04D8DFE803F013
:10735000214646212100236801294FEAE372CDE945
:107360000E321CD19DF93830DA17CDE90E320434D3
:107370009DF8403013F0030650D0039B3A4659461F
:10738000484608F013FB0028C0F253810544039FD0
:10739000F2E554F8043BDA17CDE90E32E8E70229AA
:1073A000E5D11AB243F3C033CDE90E23DFE7022B58
:1073B00024D1CB1E042B04D8DFE803F018101018DA
:1073C0001800012954F8043B4FF0000214D00229A0
:1073D000CDE90E32CCD19BB20E93C9E7073424F02D
:1073E0000704F4E80223CDE90E23C1E754F8043B77
:1073F0000E9300230F93BBE7DBB2CDE7042B08D13C
:10740000073424F00704D4E900230834CDE90E231F
:10741000AEE7032BACD154F8043BDDE79DF8430005
:107420007828B4D862281CD825283FF4ADAD582858
:10743000ADD10DF136030093DDE90E0108AB10AAC2
:1074400008F06EFABAF1000F074680F29A80002F1A
:107450009DD00DF13603D81B002E00F0C180013005
:10746000BEE06338152892D801A252F820F000BF80
:1074700045750200577502008F7302008F7302007A
:107480008F7302008F730200577502008F73020022
:107490008F7302008F7302008F730200E575020084
:1074A0007D750200A37502008F7302008F730200C6
:1074B000C97402008F7302007D7502008F73020091
:1074C0008F7302007D750200BAF1000F0E9F35DB4D
:1074D0005146384608F057FF07EB000A002F3FF4EB
:1074E00056AF00269DF8423013F01002059200F0CE
:1074F000938002305B06119A48BF129B049210449D
:1075000048BFC018B8F1000F40F3A0809DF840209C
:10751000A8EB0008C2F380035007069300F19680A1
:10752000510640F189803EB159463046C84700288F
:107530007FDB069B01351E4630227EE0384608F090
:1075400004FFC9E70E9B8DF82030002608AF0DF12F
:10755000210A0120C6E719075CBFC3F300135E01CF
:10756000DDE90E2348BF2B26002BBFF662AF524247
:1075700063EB4303CDE90E232D265AE7002658E797
:1075800000269DF840200DF13603DB1B6FF38612B9
:107590009A458DF840207FF65AAFAAEB030311936A
:1075A00055E70E9890B30DF13603009310AA08AB7F
:1075B000002108F0B5F9BDF8423003F0EF0343F4C1
:1075C000F04343F01003BAF1000F0746ADF8423024
:1075D000D6DA00283FF4DBAE0DF13603181A002688
:1075E0009A467FE70E9B07293FF6D1AEDFE801F010
:1075F0000C04060C08080C0C1D70C8E61D80C6E6BD
:10760000EA17C3E90052C2E61D60C0E62E4F0646E7
:1076100007F1050A052065E71A0748BF013069E749
:107620000793104606925946C8470028DDE906230D
:1076300004DA15B0BDE8F08F202243461946002930
:1076400003F1FF33ECDC45446D1A98462EB15946E0
:107650003046C8470028ECDB01359DF84230DA0699
:1076600001D41B0705D559463020C8470028E0DB68
:107670000135059B33B19DF843005946C8470028A2
:10768000D7DB0135049E2E4405E059463020C8471B
:107690000028CEDB0135731B002BF6DC53463A463F
:1076A0005946484608F082F90028C2DB0544A84440
:1076B000A8EB0503002B7FF76AAE59462020C84788
:1076C0000028B6DB0135F3E76417030004F048BD7A
:1076D0002DE9F047DFF85880044607464FF00109CE
:1076E00014B93846BDE8F08794FAA4F5B5FA85F5E3
:1076F00009FA05F32E0108EB05156FEA030A24EADF
:1077000003042B7B002BEBD058F806301B694BB9D8
:107710004644042273682846196807EA0A0700F0FD
:1077200059FADDE7284698470028D9D1F0E700BF8D
:107730004C13030030B51049104889B0002209F0FD
:10774000D5FB0F4D0F494FF440420023CDE90623EE
:1077500000240E23CDE90334CDE901440A4B009403
:107760004FF44072284606F043FC0849284609F0C9
:1077700048F9204609B030BD917702003808002052
:10778000B003002090190020817A02006A170300DC
:10779000014806F0BBBD00BFC80200202DE9F0473C
:1077A00080461F480F4608F029FC0646002830D0C6
:1077B00000252846BDE8F087237B73B12368DB688A
:1077C0000BB12046984723681B69D3B9636804222C
:1077D0001968204600F0FEF9013610344C45EBD311
:1077E000B8F1000FE5D0002DE2D02846FFF770FF7A
:1077F0000546002FF7D000214FF4A47007F0ECF9F4
:10780000F1E7204698470028E0D00AFA06F31D4326
:10781000E2E7044CDFF8109005464FF0010ADDE77F
:10782000A00B00204C1303005C130300014B53F822
:1078300020007047E013030008B5034608462BB14B
:10784000044A136000F078FC002008BD6FF01500BA
:10785000FBE700BF5401002010B5044C237813B996
:10786000034806F053FD0123237010BD701900205A
:10787000C802002010B50446084808F0BFFB5CB100
:10788000BFF35B8F064B53E8001F013943E800123A
:10789000002AF8D1BFF35B8F10BD00BF980B00200A
:1078A0009C0B00200020064BBFF35B8F014653E882
:1078B000000F43E80012002AF9D1BFF35B8F704735
:1078C000980B002070B5FFF7EDFF084C084E0546F9
:1078D000B44200D370BD63685B792BB123685B68E9
:1078E00013B12946204698471034F1E74C130300A2
:1078F0005C13030010B5044C0449204608F00FFA4D
:10790000034B1C6010BD00BF48020020CC130300D5
:10791000900B0020084A094808B500231370084A54
:107920001360084A4FF400411360FFF785FFBDE87C
:107930000840FFF7DFBF00BF71190020F9FF020008
:10794000980B00209C0B00200146002201480023D8
:1079500008F006BA48020020014808F09FBA00BFAC
:1079600048020020024B0146186808F0E9BA00BF3F
:10797000900B0020014808F01FBB00BF4802002008
:1079800070B5284B187800284BD0FFF7E5FF054667
:1079900090B1BFF35B8F244B53E8001F013943E8DC
:1079A0000012002AF8D1BFF35B8F204C204EB44266
:1079B0002DD32846FFF7D6FF1E4B1F4C1B68002B0C
:1079C00019DD09F06BFA4FF47A72A0FB020302FB97
:1079D0000131C30BD4E9002043EA41439B1A4FEA2B
:1079E000D13140F2E93261EB0001934271F10001C3
:1079F00001D3FFF767FFD4E9003213F57A7342F140
:107A00000002C4E90032BDE87040FFF7B3BF63680D
:107A10005B7923B1236829461B68204698471034B8
:107A2000C5E770BD701900209C0B00204C130300AB
:107A30005C130300980B00203008002070B50D4D3A
:107A4000297861B90120FFF7A9FE0B4C0B4EB44217
:107A500006D3FFF795FF0028FBD101232B7070BDE3
:107A600063685B791BB1236820469B689847103494
:107A7000EDE700BF711900204C1303005C130300F5
:107A800000212DE9F0470846FFF788FE044648B379
:107A900040F267684FF0000907F0D2F81A4B1860FF
:107AA00030B11A4B1B68092B02DD194806F02EFC79
:107AB000184FDFF85CA0002544B12046FFF708FE10
:107AC000044618B94FF0FF384FF0FF39FFF758FF61
:107AD000064628B9B5B942464B46504606F03AFC30
:107AE0003546E9E74FF0FF384FF0FF39D4E72B6810
:107AF0009B691BB100221146284698471035BD42AC
:107B0000F5D3E8E7044DFAE7940B00209C0B002026
:107B1000C80200205C1303004C13030013B518487F
:107B200008F06CFA174B1B787BB14FF02003EFF392
:107B3000118483F31288BFF36F8FFFF721FF84F363
:107B40001188BFF36F8F02B010BD0F4B1B68002B65
:107B5000F9D050B900220023CDE900230B484FF49F
:107B60000042002307F0B0FAEDE70928EBD10748FF
:107B700009F0C8F9064802B0BDE8104006F0C6BBDF
:107B80009C0B002071190020940B00203808002065
:107B9000C802002010B5064B1B68044698472146D2
:107BA000A060044808F05AF9BDE81040FFF7B6BFDE
:107BB0005401002048020020044A054B9B1AB1EBF7
:107BC000D30F34BF52F8310000207047BC120300BD
:107BD0004C130300084BC31A10B41B114468013343
:107BE000237143689A7143681960436801225A718E
:107BF00010BCFFF731BE00BF4C1303002DE9F04F5E
:107C00008FB004AFC1F34A28B8600D4691467B603F
:107C10000C0DB8F1000F63D0002607F114034FF0EC
:107C2000040B4FF00A0AC7F80C80C7E907667E62AA
:107C30000193CDF808B0CDF800A007F11C03F96856
:107C400032464846FEF788FEB0F5006F03461CD367
:107C50006C468AB0D9F8041004AB2648C3E9050184
:107C600040F2FF71D9611A464FF400711984224B1A
:107C700042F8103F214833464FF41251FFF7BEFF40
:107C8000A5462C37BD46BDE8F08FC0F30A0804F1C5
:107C90001700184420F0070080083B60FFF754FEEF
:107CA00068F35325044690B13B68154AC7E9083686
:107CB00000F1100107F11403F961CDE900A3CDF83B
:107CC00008B0F96807F11C034846FEF745FE68F363
:107CD00053257B68B9682A46204608F0C5F9D0E7E5
:107CE00004F1170020F007008008FFF72DFE04467E
:107CF000EDE700BF7F17030004000001EC12030052
:107D00003D0003002DE9F04F87B0DDE91269DDE9A0
:107D1000105A04460F4693469846A6B31021CDF854
:107D20000090334652460020CDF81490FEF73EFCFA
:107D3000014605F117000844144B039104F00704B1
:107D40000BF0070BE40020F0070003EA412344EAAC
:107D50008B1480081C43FFF7F7FD44EA05540546E1
:107D600040B13EB10399CDF80090334652461030F1
:107D7000FEF71CFC434622463946284607B0BDE8BC
:107D8000F04F08F071B93146D3E700BF00FE0F0095
:107D90000EB403B503AB014653F8042B044801931A
:107DA00008F088F902B05DF804EB03B0704700BF3B
:107DB000DD000300CA0605D48B064CBF0249034907
:107DC000FFF7E6BF704700BFBF170300BE170300F1
:107DD0002DE9F04F89B09B469DF848300493DDE9CA
:107DE00013930593049B0692DDE9157604460D4630
:107DF000002B00F0878006F00803079308F01CF9B9
:107E000006F0020A024600284BD086492046FFF7BA
:107E1000BFFF8046BAF1000F08D016F0440F42D1E0
:107E200081492A462046FFF7B3FF804406F001034C
:107E30005BB17E4B049A7E4953F822207D4B20464D
:107E4000002A08BF1A46FFF7A3FF06F00803002B1D
:107E500055D0794B049A794953F822202046FFF7F0
:107E600097FF0546069B2BB175491A462046FFF73A
:107E70008FFF0544BBF1000F05D072495A462046DA
:107E8000FFF786FF05444544B9F1000F49D1002FA3
:107E90004FD1F30700F1C08031462046FFF78AFF3B
:107EA000B4E08046B6E7684B18680028BDD0674B41
:107EB0004FF47A7E1B68B5FBF3F54FF46162B5FBB6
:107EC000F0F300FB1355B3FBF2FA0EFB05F502FBD2
:107ED0001A323C21B5FBF0FCB2FBF1F300FB1C5560
:107EE00001FB13220EFB05F50092B5FBF0F5584996
:107EF000CDE901C552462046FFF74AFF95E706F057
:107F00000805AFE7BBF1010F06D1B9F1000F64D14D
:107F1000002F7BD000250CE0B9F1000FF8D04D48C0
:107F20005CE04D484D494B46224607F070F9002F62
:107F300068D0DFF82C91DFF82CA1102F31462046B5
:107F4000B84628BF4FF01008FFF734FF4FF0000B82
:107F50005D4545DC059B51461A782046FFF718FF22
:107F60004FF0010B1BF0070F03D149462046FFF7E6
:107F70000FFFD8453BD9059B514613F80B202046EF
:107F8000FFF706FF0BF1010BBBF1100FEAD13649E9
:107F900020464FF0000BFFF7FBFE5A46059B9A5C0C
:107FA000A2F120015F2928BF2E2230492046FFF789
:107FB000EFFE0BF1010BBBF1100F1DD01BF0070FF3
:107FC00003D149462046FFF7E3FED8455A46E5D897
:107FD00049462046FFF7DCFEEBE71F48049DA1E77A
:107FE00049462046FFF7D4FE0BF1010BB0E72049CC
:107FF0002046FFF7CDFEC5E7059BB7EB08074344D6
:1080000005939AD1049B002B7FF443AF204609B01F
:10801000BDE8F04F08F055B8064A05492046FFF77D
:10802000B7FE39E7C6170300CA170300F0130300B1
:10803000EF170300C117030004140300F217030035
:10804000F8170300FC170300A80B0020A40B002066
:10805000D317030013010300DD000300B500030084
:1080600009180300011803000B1803000D18030082
:10807000071803002DE9F0410F884B688E6886B021
:1080800005460C469046C7F382175BB1134A9B1A0C
:1080900043F3CF0100291FDB2078C0F3C200FFF7B4
:1080A0008BFD03462146608851F8102B0097C2F3E0
:1080B0004A22002A01EB0204C0F30B1008BF002182
:1080C000CDE90308CDE90114002231462846FFF727
:1080D0007FFE06B0BDE8F0810023E3E7BC12030099
:1080E00073B542F20F738B4228BF0B4605680F4AE7
:1080F00004460521684607F002F963680C495B688D
:1081000006460B22284607F0C8FF636832466946D8
:1081100028465B6807F0C1FF636806495B681B225D
:10812000284607F0BAFF02B070BD00BF212003004F
:108130002C18030010180300074A00210123904265
:1081400006D8064A01B901231360054B1860704731
:1081500040085B000121F2E740420F00A40B002021
:10816000A80B0020014B002019607047C00B0020B5
:10817000024B034801221A7007F0A3BF73190020B5
:10818000341403000148FFF7ABBF00BF34140300F1
:1081900010B5064B18680C46FFF748FB214603460E
:1081A000BDE8104002480F22184700BFC00B002056
:1081B00034140300F8B5074F0D4604464618B44280
:1081C00001D12846F8BD14F8011BBB6801485B6863
:1081D0009847F4E7141103002DE9F84305464FF0E2
:1081E0002003EFF3118683F31288BFF36F8F0E4BDA
:1081F0000E4F1C68DFF838804FF00C092CB986F35D
:108200001188BFF36F8FBDE8F883D4E90123002DF7
:1082100018BF13462BB198F8102009FB02F2B85C86
:1082200098472468EAE700BFDC0B0020D00B002051
:108230003419002070B5194B1C7CBFF35B8F04F020
:108240001F0301229A40164B610903EB8103D043BF
:1082500053E8001F01EA000543E80056002EF7D15D
:10826000BFF35B8F0A4213D00E4B0F4D8BB10C2323
:108270006343EA18E85C517808F09AF80020FFF7A9
:10828000ABFF0C235C432A1900232B51C2E90133B5
:1082900070BD83F31188BFF36F8FEFE734190020AF
:1082A000E40B0020B1030300D00B00202DE9F041C6
:1082B000354B07461D7C4FF02003EFF3118883F305
:1082C0001288BFF36F8F0C24304B314E6C431A1958
:1082D000195D00294CD007CA06EB040C8CE8070096
:1082E00000221A5588F31188BFF36F8F0C236B435C
:1082F000F218F05C002839D07B1C10D0D2F808C0EE
:10830000244C254A4FF400400021ECFB004100239F
:108310002046FDF7F5FE0121381A03F0C9FE06F0EC
:10832000A1FB0120FFF758FFBFF35B8F1B4B6A09CE
:1083300003EB820305F01F0101228A4053E8000F7E
:10834000104343E800010029F8D1BFF35B8F144BC1
:108350003BB10C2303FB05F03318305C597808F06F
:108360001BF8FFF767FF06F091FB0120BDE8F081E5
:108370000146284600F016F80028B3D007C8344458
:1083800084E80700AEE700BF34190020C40B0020CA
:10839000D00B00203F420F0040420F00E40B0020B2
:1083A000990303002DE9F04F384C85B04B1C0F4664
:1083B00003A90CBF4FF0FF384FF0000800F06EF833
:1083C0006368002B054612DB08F056F9D4E9003249
:1083D0001C1A62F1000698424FF00003934102DB41
:1083E000013C46F10006012C76F1000302DA3C461E
:1083F000464609E0B8F1FF3F08BFB7F1FF3F03D0A1
:10840000A74278EB0603F2DB214B039F1B68009326
:108410006B1E1BB203EB4303DFF8789007EB830777
:108420004FF400484FF0000B25B9AA46504605B05E
:10843000BDE8F08F7868184ACC465946E0FB08C181
:1084400000236046FDF75CFE0190B868124ACC46F6
:108450005946E0FB08C100236046FDF751FE009B32
:10846000002BBA4601DB83420BD9B6F1FF3F08BFB0
:10847000B4F1FF3FDAD0019B1844844276F1000347
:10848000D4DA013DADB20C3FCEE700BF00000020C2
:10849000580100203F420F0040420F0008B9024B34
:1084A0000B600020704700BF44140300F0B40C4B75
:1084B0000C4E5F6A0C4BB34203D36FF08500F0BCE7
:1084C00070475D68BD4209D31C693CB195F802C094
:1084D0000579AC4502D12346F0BC18472433EAE7BE
:1084E000E80B0020B00300208C0300202DE9F047AA
:1084F000134CDFF85080DFF8509005460E461746C3
:10850000444503D36FF08500BDE8F0876268D9F871
:1085100024309A4212D3A36983B190782979884292
:1085200005D13A4631462846BDE8F047184752790A
:10853000012A03D13A463146284698472434DFE7DA
:108540008C030020B0030020E80B00202DE9F0414F
:108550000B4CDFF8308005460E461746444502D3E3
:108560006FF0850009E063690BB92434F6E73A46F9
:108570003146284698470028F7D1BDE8F08100BF72
:108580008C030020B003002002480822002107F0DD
:10859000EEBE00BFA30C002070B50B4B0B4CA342EA
:1085A00001D3002070BD196A1E7F00220439D5B2A4
:1085B000AE4201D82433F2E7013211F8325085423D
:1085C000F5D10120EEE700BF8C030020B0030020AE
:1085D00008B509480378C3F341130A3350F8233030
:1085E0003BB100F1080200F110019847C043C00FF1
:1085F00008BD1846FCE700BFE80B00207FB5084B1C
:108600000593022304930748002304AA4FF48251E0
:10861000FFF7F4FA4FF0FF3007B05DF804FB00BF3E
:10862000751803003413030073B5C4B263060D4616
:108630008DF8074007D02046FFF7AEFF78B10D4B0D
:1086400093F8BA0058B10B4E204655B102F0F0FB3A
:10865000F3691BB10DF1070108209847012002B012
:1086600070BD02F01FFCF369002BF7D00DF107017C
:108670000920F2E7E80B002080B500AF88B06A4619
:10868000074BC2E90530032342F8103F0548002399
:108690004FF4C251FFF7B2FA0020BD4680BD00BFC3
:1086A0009A1803003413030004282DE9F74FDFF86C
:1086B0009C9004460F4615D001282FD1DFF89080FA
:1086C00098F8B93053B300F00DFF224D4D4522D23A
:1086D0002A6A4FF0000A2B7F5FFA8AF6B34204D869
:1086E0002435F3E7FFF750FFE8E702EBC6060192F7
:1086F000307907F07DFE8346307907F019FDD8F810
:10870000C430019A23EA0003BBF1000FC8F8C4305B
:108710000AF1010ADFDA002388F8B9300D4D4D4522
:1087200008D30B4B1B6A6BB13946204603B0BDE83A
:10873000F04F1847EB681BB13A4621462846984748
:108740002435ECE703B0BDE8F08F00BFB003002094
:10875000E80B00208C030020F8B500AF054607F0B9
:1087600047FE10F1780F044613D090B16E4688B0E2
:108770006A460E4BC2E90535032342F8103F0C4808
:1087800000234FF4C251FFF739FAB5462046BD46E3
:10879000F8BD284607F0CCFC064AD2F8C43023EADC
:1087A0000003C2F8C4300024F0E700BFB51803008E
:1087B00034130300E80B0020F0B583B000AF04468B
:1087C0008078387023796279274D43EA02237B80D1
:1087D000E37803F003033B7107F0AAFCD5F8C4303B
:1087E000184206460CD0A478204600F05DFE2046D4
:1087F000FFF7B2FF08F0FFF810B9962006F006FA6E
:10880000384602F0E1FA10F1780F0346387814D0B8
:108810009BB16C4688B06A46144BC2E9053003230D
:1088200042F8103F124800234FF4C251FFF7E6F917
:108830000020A5460C37BD46F0BD02F06FFB10F1DD
:10884000780F08D038B16C4688B03B786A46094941
:10885000C2E90513E3E7D5F8C4300120334385F8B6
:10886000B900C5F8C430E5E7E80B0020D7180300CD
:1088700034130300FB1803002DE9F047A34EB3693E
:1088800004460F461546FBB9237803F01F03012B5E
:1088900000F09D80022B00F0048133BB94F90000AE
:1088A0002A686178002834DA062912D008292BD0EA
:1088B000D9B901231370517096F8C3305B0043F0AF
:1088C0000103137002232AE198470028DCD100201D
:1088D0000DE06288100A011F0129844605D9072886
:1088E00003D8716AD2B20C781CB96FF01500BDE8DC
:1088F000F0874E78664503D19A4200F00B81013330
:108900002144F0E70B780AE196F8BA30137001239E
:1089100005E101390829E8D801A353F821F000BF87
:10892000B9890200EB880200C7890200EB880200C7
:1089300045890200EB880200EB880200EB88020008
:1089400051890200A07802F0FBF90028BFD0CCE7E3
:108950006388756A63BBFFF717FE638886F8BA30D1
:10896000F369002BB3D06A4903209847AFE76B78CF
:10897000042B10D0052B11D0022B04D16F79638802
:10898000BB4208BF01202B781D442B78002BEED171
:108990000028AAD0DFE795F80380F4E76388BB429C
:1089A000F1D1B8F1000FEED12846FFF705FFEAE755
:1089B000FF270020B846E8E76388012B95D1002304
:1089C00086F8C33083E76388012B8ED1F8E796F8E9
:1089D000BA30D5F800C0002B87D0756AA38894F808
:1089E00004E02A46107800283FF47FAF517802292E
:1089F00004D192F80480F04500F293800244F1E73C
:108A00008CF800208CF80120396060E7154494E070
:108A10000B2A7FF46AAF00274FF0FF08C146BA4621
:108A200006E06B78042B0FD0052B21D02B781D444A
:108A30002B78002BF5D1F36913B1514607209847E5
:108A4000002F7FF444AF50E795F80280A38895F893
:108A500003909845EAD163889945E7D1B8F1070FAB
:108A60001CD806EB0803AA4683F8BB900127DDE774
:108A7000A3884345DAD1A3784B450AD0AF7838466E
:108A800000F012FD3846FFF767FEB0FA80F77F0965
:108A9000CCE72846FFF790FE0746C7E7AA4600271F
:108AA000C4E794F900206378002A18DA002B7FF4D9
:108AB0001CAF24792D6863060AD02046FFF76CFDB1
:108AC00000283FF412AF96F8BA30002B3FF40DAFF8
:108AD0002946204602F006FA00236B70F2E6012BCD
:108AE00008D0032B7FF401AF6388002B7FF4FDAE29
:108AF000012103E0618800297FF4F7AEA088FFF729
:108B000093FD00287FF4E3AEEFE600BFE80B002002
:108B1000A20C0020022829607FF4F4AE4B883B6051
:108B2000D5E694F9000062780028BFF671AF002AFC
:108B30003FF466AF0A2A7FF4D8AE2A78002A3FF4C1
:108B4000D4AE697804297FF461AFA9788B427FF4B1
:108B50005DAF072B96BF9B19002393F8BB308CF8B1
:108B60000030D4E613B5164C237DF3B9E268A16852
:108B7000019201AB802007F0E9FA019AA36813443F
:108B8000A360E3689B1AE3606BB962B12369E28872
:108B90009A4208DD94F8C82093FBF2F102FB1133EE
:108BA0000BB90123237502B010BD00231A461946E4
:108BB0008020237502B0BDE8104002F0D9B900BF93
:108BC000E80B002070B58AB000230D4601930646DD
:108BD000002868D1002940D108220B460DEB020184
:108BE00007F01FFC002804DA802002F021F90AB007
:108BF00070BD324C029A2260039A626004F138021E
:108C0000A2609DF90820BDF80E302575002AC4E940
:108C1000035515DB802B0FD9294B099302230893A9
:108C200028482B4608AA4FF48251FEF7E7FF802020
:108C300002F0FEF82846D8E713B1C4E90333D6E7BB
:108C4000FFF7C6FC0028CFD0E28823699A42D4BF40
:108C5000E260E360FFF786FFC9E7184CD4E902122F
:108C6000002A01AB05DC024607F0DBFB0028BEDA78
:108C7000BAE707F0D6FB002804DA802002F0D8F823
:108C80003046B2E7019AA3681344A360E3689B1AD5
:108C9000E360002BABD104F13803A360FFF798FC2D
:108CA0000028D7D1A0E78028A1D1044BDA68002A98
:108CB000D0D11B7D002BCDD199E700BFE80B002060
:108CC0001C19030034130300054B064A9A62064A36
:108CD000DA62064A1A63064A58629A6100207047AF
:108CE000E80B002079880200AD8402004D85020067
:108CF000ED8402002DE9F041464D86B06F6A0446CE
:108D000045484FF0FF324FF0FF3305F015FA95F864
:108D1000B860002E7BD141482C62E86102F09CFAD9
:108D200001F0DCFF041E15DB00F000FC041E11DB6B
:108D30007B78012B01D1FB799BB9394B0593022339
:108D400004933848002304AA4FF482516FF01504AD
:108D5000FEF754FF304805F069FA204606B0BDE83A
:108D6000F081684685F8C830ADF802308DF80460AF
:108D70008DF8006002F028F8041EEBDB80276846BF
:108D80008DF8007002F020F8041EE3DB264930461F
:108D900002F04EFA041EDDDB2349384602F048FAA1
:108DA000041ED7DB214CDFF8888044451AD300200D
:108DB00002F0B4F8041ECDDBD5F8C430802043F0B7
:108DC0000103C5F8C43002F0A9F8041EC2DBD5F8CF
:108DD000C43043F48033C5F8C430012385F8B8307B
:108DE0000024B7E7276A0026227FF3B29A4201D80F
:108DF0002434DAE707EBC30257F83310107902F096
:108E000017FA01360028EFD04FF0FF34A2E76FF0D9
:108E100077049FE7E80B0020B4020020A986020037
:108E20003519030034130300C58B02008C030020A6
:108E3000B003002010B50A4B93F8B8406CB900F0AD
:108E400055F818B9BDE81040FFF7D8BBFFF73CFF55
:108E50002046BDE81040FFF74DBF6FF0770010BD12
:108E6000E80B002030B51F4B8BB005AA03F11005AD
:108E700018685968144603C40833AB422246F7D138
:108E80001B7823701022002101A807F070FA12222B
:108E90000021154807F06BFA102101A807F0CBFB61
:108EA00000281BDD0828B8BF0820093801AB0E498F
:108EB0001A18002012F8013F0AAC04EB131403F057
:108EC0000F0328336B44013014F8144C13F8143C8E
:108ED0000C7008284B7001F10201EBD102480BB075
:108EE00030BD00BF6F190300741900202DE9F04F49
:108EF000904C8BB04FF0000A00AF00264FF00119E4
:108F0000FE603546B046237843B98B4B02349C4211
:108F1000F3D188482C37BD46BDE8F08F6378052B28
:108F20001DD8DFE813F0BE0006000501BE001F00DB
:108F30005700402387F810A07B8287F814A007F120
:108F4000100001F00FFF40B108237B8207F11000F1
:108F500001F008FF08B1A7F812A07B8AE37123781B
:108F60001C44D0E7E378002BF9D1A37843B3FB6826
:108F70000133DBB2FB60F2E76A68944223D0243508
:108F80009D42F9D36D4688B06A466C4BC2E9053400
:108F9000032342F8103F6A4800234FF4C251FEF702
:108FA0002DFEAD46674B7B6202233B626448002383
:108FB00007F120024FF48251FEF720FE0020A9E7BE
:108FC000614D624BDCE7AB68002BD0D0F9682046DE
:108FD0009847CCE7002D62D15D4B7B6202233B6258
:108FE0005748002307F120024FF48251FEF706FE96
:108FF000D8E72B6AA07803EBC2010B79984205D021
:1090000001322B7F9A42F4D3524BE6E74FF0010B2B
:10901000E07800F003003875207994F805C040EA44
:109020000C20788294F9020000285FFA8BF328DA8A
:109030000BF110004FF0010C0CFA00F010EA090FD0
:1090400027D143F08000387407F11000C7E90031E0
:10905000BA6001F087FED7E901123B68C8B93A7CD3
:10906000A27012F0800F18BF10330A7118BFDBB264
:109070004FF0010214BF9A4002FA0BF249EA0209CA
:109080006DE7012000FA0BF010EA090F01D1184634
:10909000D9E70BF1010BBBF1100FB9D1B0E70022FA
:1090A000AFE7032E2AD1FFF7DDFE8346A8B107F014
:1090B0004CF9B86088B1284807F047F9BA6882428D
:1090C00017D0264B7B6202233B621D48002307F129
:1090D00020024FF48251FEF791FD23786FF00201D8
:1090E000E218091B04EB5303D1420ED50136F6B248
:1090F00035E75946A01C07F02FF9EEE7002EECD11A
:10910000B8F1000F08D1164B67E702F801AC13F86D
:10911000010902F8020DE7E7A4EB080388F8023022
:10912000C3F3072388F80330FB6888F80430DDE7D1
:10913000A04614E7E80200208B03002080190300FA
:109140002C130300661A03008C030020B0030020D8
:10915000A0190300E11903006F190300FE190300B1
:10916000491A030010B5094B00211A461C788442A5
:1091700004D15C6814B102EB811010BD01310429E7
:1091800003F14003F2D10020F7E700BFB40C002048
:109190002DE9F04383B050F8283C10F82C5C1033D4
:1091A00000AF044611D1036950F8202C13F00206D9
:1091B0004ED00ABB13F0040304D11A4619462846C0
:1091C00006F0C4FF002344F8283C54F8283C103330
:1091D0000ED054F8186C5EB154F81C8C54F8149CE2
:1091E00007F009FC00286FD03D48214607F0F9FC44
:1091F0000C37BD46BDE8F08350F8241C3B1D2846C3
:1092000006F0A4FF98B16E4688B06A46354BD5612A
:10921000C2E90530042342F8103F334800234FF4DD
:109220000151FEF7EBFCB5466FF01503CBE77A680A
:1092300054F8243C134444F8243C54F8203C9B1A32
:1092400044F8203C54F81C3C134444F81C3CBCE754
:1092500050F8241C3B1D284601F02CFF88B1E8463D
:1092600088B06A461F4BD561C2E90530042342F835
:10927000103F1D4833464FF40151FEF7BFFCC54671
:10928000D2E77E6854F8243C334444F8243C54F834
:10929000203C9B1B44F8203C54F81C3C334444F8CD
:1092A0001C3C002E8ED0284601F0DCFFB6FBF0F30C
:1092B00003FB1066002E85D154F8203C002B81D092
:1092C000284601F05DFF80E744F8180CA4F1100077
:1092D00005F01CF84A4641462846B04788E700BFDB
:1092E00070080020941A03004413030070B54B1E4D
:1092F000012B88B006460D4618D8FFF733FF044609
:10930000B0B9012D12D101AB012202A9304601F002
:10931000D1FE019B002BF6D10F4A07920222069242
:109320000E4806AA4FF48251FEF768FC08B070BDE3
:1093300007F061FB04F12C0108B1012D05D10846AD
:1093400008B0BDE87040FFF723BF054808B0BDE88E
:10935000704007F046BC00BFB11A0300441303007D
:10936000700800202DE9F04F8BB000AF0546B960C2
:109370001646FB6006F032FF002840F086804FF072
:109380002003EFF3118283F31288BFF36F8FDFF8AE
:1093900000A17A60814600230022504604F0DAFFE3
:1093A0000346E8B9DFF8ECB04FEA89180BEB8919EE
:1093B000D9F8044014F1100F31D16E4688B06A46D6
:1093C0003549C2E90515032142F8101F33484FF40F
:1093D000C251FEF713FCB546504604F097FF14E067
:1093E00009F10109B9F1040F0AF1400AD3D12C4B5C
:1093F0007B6202233B622948002307F120024FF4DD
:1094000082516FF00B04FEF7F9FB7B6883F3118840
:10941000BFF36F8F20462C37BD46BDE8F08F3B6D04
:10942000C9F81430FB68BA68C9F83C307B6DC9F8DC
:109430001000C9F8183028466FF00F03C9E902265A
:109440000BF80850C9F8043001F00CFF68B1284649
:1094500001F008FFB6FBF0F303FB10662EB1D9F85C
:109460003C3043F00403C9F83C30FB689B0707D548
:1094700008F12C010B48594407F0B3FB0024C4E762
:10948000284601F07DFE0446BFE76FF00F04C1E7F8
:10949000D00C0020B40C0020E61A03004413030093
:1094A000CB1A03007008002010B54FF02003EFF333
:1094B000118483F31288BFF36F8FFFF753FE50B10F
:1094C0004368103307D16FF08B03436000F12C0128
:1094D000034807F086FB84F31188BFF36F8F10BD3C
:1094E0007008002070B50F4C04254FF02003EFF3F7
:1094F000118683F31288BFF36F8F6368103307D12F
:109500006FF08B030848636004F12C0107F069FBDE
:1095100086F31188BFF36F8F013D04F14004E4D15D
:1095200070BD00BFB40C00207008002070B50A4C5C
:109530000A4E00253146204607F036FB0122A4F1F1
:1095400010001146013507F0F2FA042D04F1400431
:10955000F0D1002070BD00BFE00C0020919102000E
:1095600070B504460E4601791248154606F012FE03
:10957000E8B194F900206378002A11DB202B04D095
:10958000222B09D06FF0850005E0296807221038EA
:1095900006F0E2FE002070BD638800F8093CF9E7A0
:1095A000212BEFD11038072328603360F2E76FF0EA
:1095B0001200F0E7B40D002008B50146034806F09C
:1095C000F7FD10B1012300F8073C08BDB40D0020E1
:1095D0000169012381F84B300B6833B191F84930B0
:1095E0001BB10248083107F0FCBA70477008002030
:1095F0000169012381F84A300B6833B191F8483092
:109600001BB10248083107F0ECBA7047700800201F
:109610000D4A03460021A0F848101068C3F89400D2
:1096200090889279A3F8980083F89A2083F89C1088
:1096300083F89B10A3F89E1083F8A010402203F13A
:109640004C0006F094BE00BF6013030038B50569F6
:1096500095F89E0088B195F89F307BB985F8483021
:10966000D5F8900006F0EDF90022044600230448E6
:1096700005F1180104F0C4FF204638BD0020FCE7C6
:109680007008002013B504698DF8071094F89E3017
:10969000A3B194F89F308BB90DF10701D4F8900075
:1096A00084F84830012206F0CCF9014640B10D485B
:1096B0002122002304F1180104F0A2FF02B010BD22
:1096C000D4F89000012206F010FA0028F6D0D4F861
:1096D000900001220DF1070106F0B3F90028E6D150
:1096E000ECE700BF70080020F0B5D0F88C305B6864
:1096F0001B6A1F7D85B00546384606F06FFD06469D
:10970000E0B9A86F4FF4806203A906F0B9F90446E6
:10971000A0B18306A5F1180308BF00F1FF3485F856
:1097200030600193064B039900932246022338468A
:10973000FFF718FEA86F214606F0C2F905B0F0BD8C
:109740004597020010B5012382F84830136814468B
:109750003BB192F84A3023B10A4802F1080107F000
:1097600040FAD4F890309A681B699A4208D004F104
:1097700018010448BDE810400022002304F040BF57
:1097800010BD00BF7008002010B504690023C4F8A4
:10979000A8300C4BC4F8A400596804F1A80269B9B8
:1097A000C3E9002204F10800074907F0FDF904F1BC
:1097B0001800064907F026FA002010BD0A605A601A
:1097C000F0E700BFB40D002007020300E996020095
:1097D00073B5144602F14C060A1E05461FDDD4F887
:1097E0008C00314606F02DF9012384F849302368B6
:1097F0003BB194F84B3023B10E4804F1080107F057
:10980000F0F9D4F88C104B684A699A1ACB699B1A04
:109810003F2B04D8012384F8A03002B070BD064B62
:10982000009301940123402231462846FFF79AFD18
:10983000F3E700BF70080020D197020038B50D464D
:1098400001461E4806F09AFC044680B30246691E93
:1098500052F8A4395B68052929D8DFE801F02028EF
:109860000320252914F8061C31B91B6A187BFFF761
:10987000AFFF012304F8063C14F85C3CBBB901239C
:1098800004F85C3C54F8A43C8BB114F85A3C73B116
:10989000A4F19C010A48BDE8384007F0A2B9BDE830
:1098A00038401046FFF7B4BE012304F8053C38BD2C
:1098B00014F8053C002BFAD00023F6E7B40D002085
:1098C0007008002037B5094D0949002400944FF075
:1098D000FF334FF48062284604F05AFE05492846BB
:1098E00007F08FF8204603B030BD00BF700800209D
:1098F000901C0020361B0300014910220A607047AB
:1099000010ED00E072B6404080F31188BFF36F8F16
:10991000BFF34F8F30BF62B6BFF36F8F704700BF8A
:1099200072B6494081F31188BFF34F8F20BF80F397
:10993000118862B6704700BF2DE9F047814600AF3D
:109940000C4600294CD06E468AB0D1E90012A368BB
:109950006D462748A8464FF0050AC5E90501C5E947
:10996000072348F810AF2348424600234FF4215103
:10997000FEF744F9B546D4E903126369AD461E48C3
:10998000C5F810A0C5E90501C5E90723194800235A
:1099900042464FF42151FEF731F9B54688B0E369EC
:1099A0006D46164AA8464FF0030AC5E9052348F854
:1099B00010AF1048002342464FF4C251FEF71EF983
:1099C000B546A369AD460E4AC5F810A0C5E9052302
:1099D0000848002342464FF4C251FEF70FF9B5463E
:1099E0002146484604F018F9BD46BDE8F08700BF9F
:1099F0003F1B03000C1303006E1B03009D1B0300A1
:109A0000AC1B030040B2002807DB044A41090123D4
:109A100000F01F00834042F82130704700E100E071
:109A200040B200280CDB4309064900F01F00203338
:109A30000122824041F82320BFF34F8FBFF36F8F85
:109A4000704700BF00E100E0054B420900F01F0035
:109A500053F82220012303FA00F01040704700BFA2
:109A600000E100E040B20028A8BF00F1604001F131
:109A70000101B8BF064B4FEA4111ACBF00F5614090
:109A800000F00F00C9B2B4BF195480F8001370473A
:109A900014ED00E030BFFFF7FDBF00BF0F4A08B56F
:109AA0000F4B22F07F029A60BFF34F8FBFF36F8F8F
:109AB000D3F8882022F47002C3F88820EFF31483CF
:109AC00023F0040383F31488BFF36F8F04F060F96D
:109AD00005F02EF900F09AFB04F0A8F900600200EE
:109AE00000ED00E0094A0A49936809689967094945
:109AF00058674B6843F080534B60002383F3118811
:109B0000BFF36F8F9368986F704700BF34190020C0
:109B1000B415030000ED00E00F498A684FF03000F3
:109B20001044EFF3098C80E8F01F202080F31288A6
:109B3000BFF36F8F094F4FF000668A698A603E60FD
:109B4000506F0023536780F3118802F1300090E8D2
:109B5000F01F8CF3098870473419002004ED00E0F1
:109B60001EF0040F0CBFEFF30880EFF3098081694A
:109B700011F8021C0229FFD001B506F0D4FB01BD8B
:109B800042F8203C009B42F81C3C0A49019B42F8E9
:109B9000183C029B42F8143C21F001014FF0807305
:109BA00042F8043C42F8081C0023203A026543674F
:109BB000704700BF19F30200074B9860104681F30D
:109BC0000988002163B681F31188BFF36F8F0022EB
:109BD000002305F0A1FB00BF3419002001B572B6C7
:109BE0000B4A506900281EBF0021516106F010FF8A
:109BF00062B6EFF30580A0F110004FEAC0000549FE
:109C0000014409C99847BDE80140034908470000DD
:109C1000341900203C1103001D9C0200044B99687C
:109C20009869884203D003494FF080520A60704718
:109C30003419002004ED00E02DE9F04186B006461D
:109C400000AF0D46444B7B61022444483C6107F160
:109C500010024FF4825106F075FB414B9B6ADB0604
:109C600078D5404B3D48C7E9044307F110024FF453
:109C7000825106F067FB1120394B9B6A1C070BD5FC
:109C8000394B7B61022335483B6107F110024FF4E9
:109C9000825106F057FB1220314CA36A990723D555
:109CA000E846324B7B6102233B6107F110022B48EF
:109CB0004FF4825106F046FB636BA26A120612D57E
:109CC00088B06A462A492548C2E90513032342F8A9
:109CD000103F4FF4C25106F035FBC5461EB1A36AD2
:109CE00023F08003A36213201D4B9B6ADE070BD574
:109CF000204B7B61022319483B6107F110024FF4AE
:109D0000825106F01FFB1420154B9B6A9C060BD555
:109D1000194B7B61022311483B6107F110024FF49C
:109D2000825106F00FFB15200D4B9A6AD10658BFE1
:109D30009A6A9A6A920642BF5A6A22F400525A629A
:109D40009A6A42F0FF029A62183700232B70BD46D0
:109D5000BDE8F08110208FE7DA1B03000C1303002D
:109D600000ED00E0F01B0300231C0300361C030081
:109D70004E1C0300641C0300831C03002DE9F0410A
:109D800086B0064600AF0D46474B7B6102244FF478
:109D9000825146483C6107F1100206F0D3FA444B69
:109DA0009B6AD9046DD5434B4048C7E9044307F18A
:109DB00010024FF4825106F0C5FA17203C4B9B6A03
:109DC0001A050BD53C4B7B61022338483B6107F1F8
:109DD00010024FF4825106F0B5FA1820344CA36AF1
:109DE0009B0523D5E846354B7B6102232F483B6119
:109DF00007F110024FF4825106F0A4FAA36BA26A95
:109E0000100412D588B06A462D492848C2E90513C6
:109E1000032342F8103F4FF4C25106F093FAC546AF
:109E20001EB1A36A23F40043A3621920204B9B6A4E
:109E300059050BD5234B7B6102231C483B6107F17D
:109E400010024FF4825106F07DFA1A20184B9A6ADC
:109E5000D20518D51C4B7B61022314483B6107F1E6
:109E600010024FF4825106F06DFA1B20104A936ADB
:109E700043F47F439362183700232B70BD46BDE83F
:109E8000F08116209AE79B6A9B04EFD50F4B7B610C
:109E9000022306483B6107F110024FF4825106F09D
:109EA00051FA1C20E2E700BFB21C03000C130300B0
:109EB00000ED00E0C81C0300231C0300D91C0300B4
:109EC000F21C0300071D0300221D0300831C030076
:109ED00010B586B0364B3748059304AA02244FF4D8
:109EE0008251049406F02EFA334B9B6A9A015DD599
:109EF000324B304804AA4FF48251CDE9044306F0B6
:109F000021FA1E202C4B9B6ADB010AD52C4B2948D9
:109F1000059304AA02234FF48251049306F012FA27
:109F20001F20254B9B6A1C030AD5264B214805930D
:109F300004AA02234FF48251049306F003FA21206D
:109F40001D4B9B6A59030AD51F4B1A48059304AA57
:109F500002234FF48251049306F0F4F92220164BA9
:109F60009B6A9A030AD5194B1248059304AA022347
:109F70004FF48251049306F0E5F923200E4B9B6ABF
:109F8000DB030AD5124B0B48059304AA02234FF4B6
:109F90008251049306F0D6F92420074A936A6FEAA7
:109FA00003436FEA1343936206B010BD1D20A9E777
:109FB0003A1D03000C13030000ED00E0521D0300E6
:109FC000651D03007F1D03009D1D0300C21D0300CE
:109FD000DC1D03002DE9F043764B8BB0D3F80480F1
:109FE00000AF0546C8F30804002686F31188BFF3C6
:109FF0006F8F02F07F43B3F17F4F0ED102F00C035D
:10A00000082B19D16C4BFB6102236C48BB6107F133
:10A0100018024FF4825106F095F9002635460023C8
:10A02000FB71E31E092B00F2A580DFE803F00A981C
:10A030009B94A3A3A3A3A39E10074CBF0D46012688
:10A04000EDE7E9465E4BFB614FF0020807F11802AD
:10A050005A48C7F818804FF4825106F073F900236C
:10A06000544CFB71E36A9A070BD5564BC7E906833C
:10A07000524807F118024FF4825106F063F90024A8
:10A0800040E0E36A002B01DA4F4BEFE7E36A5B0045
:10A09000F5D54E4B4948C7E9068307F118024FF43E
:10A0A000825106F04FF96369AA6943F480736361D2
:10A0B000BFF34F8FBFF36F8F636932F8022C23F425
:10A0C00080736361BFF34F8FBFF36F8F4DF60273E1
:10A0D0009A4207D0A36ADBB283B3F91D0120FFF7D0
:10A0E000ABFD3AE088B02B686A4639493348C2E98B
:10A0F0000513032342F8103F4FF4C25106F022F932
:10A100002C68CD46FB79ABB92022294607F108001F
:10A1100006F022F97B6A002E47D0C3F3080222B969
:10A120006FEA53236FEA43237B6207F1080120465D
:10A13000FFF702FC2C37BD46BDE8F083A36A13F499
:10A140007F4F04D0F91D0120FFF718FE05E0A36A38
:10A15000B3F5803F93D3FFF7BBFE0446D2E7F91D6A
:10A160000020BCE7F91D0020EEE71A4BFB6102233B
:10A17000BB617DE7184A194B18F4F87FE8468AB0AE
:10A1800018BF13466A4616490C48C2E905134FF436
:10A1900000731384103C134BD4614FF4115142F8F7
:10A1A000103F06F0CFF8C54669E723F4FF7323F0AC
:10A1B0000103B9E700ED00E0351E03000C130300B6
:10A1C000601E0300771E0300981E0300A61E0300F6
:10A1D000C51E0300E11E03001C1E0300071E030032
:10A1E000051F030004000001024A536943F01003F5
:10A1F0005361704700ED00E0EFF30880EFF3098151
:10A2000001B57246FFF7E6FE01BD00BF044800231A
:10A210002021C2180133302B82F80013F9D1704786
:10A2200000E100E0FDF752FA202080F31188084891
:10A230004FF40061401880F30988EFF31480022185
:10A24000084380F31488BFF36F8FFFF727FC0000EB
:10A2500090240020084B9B6883420BD1EFF30583C9
:10A2600043B1064B5A6842F080525A605A6A22F44F
:10A2700000425A6204F0EABC3419002000ED00E00C
:10A28000024B034A0348012100F082B80000042079
:10A2900000000020901403002DE9F041DFF8B4E045
:10A2A0009C4600AF154600238B421ADA4468002C06
:10A2B0004DD0BCF1000F1DD0661E344215D06C4647
:10A2C00088B06A462449C2E90513032342F8103FC7
:10A2D000224800234FF4C251FDF790FC6FF01505A2
:10A2E000A5462846BD46BDE8F0811F2CE7D9026887
:10A2F0001642E4D1202C026886685FFA85F814D9EA
:10A30000B4F1004F13D8013CB4FA84F4C4F11F0433
:10A310006400B8F1070F46EA04060AD96C4688B013
:10A320006A460F4BC2E90535CFE70824F1E73E2422
:10A33000EFE722F01F022A4342F0100246F0010626
:10A34000CEF89850CEF89C200135CEF8A0600133AD
:10A350000C30A9E700ED00E01C1F0300041303000C
:10A360003F1F0300044B0522C3F89420BFF34F8F17
:10A37000BFF36F8F704700BF00ED00E0BFF35F8F4A
:10A38000024B0022C3F89420704700BF00ED00E0AC
:10A3900010B5034C01232278FFF77EFF207010BD1B
:10A3A0008619002014490868082810B521D8FFF73D
:10A3B000E5FF124C49680022904201F10C0105D1E1
:10A3C0000F4B1870FFF7CEFF002010BDC4F8982087
:10A3D00051F80C3C23F01F03134343F01003C4F85F
:10A3E0009C3051F8043C43F00103C4F8A030013222
:10A3F000E2E74FF0FF30E8E79C14030000ED00E0D7
:10A4000086190020014B1860704700BFB40100207E
:10A410004FF02003EFF3118283F31288BFF36F8FA5
:10A4200006490123C1F840354FF08041C1F8783525
:10A4300082F31188BFF36F8F0020704700E0014066
:10A4400020B1034B800143F001031847704700BF60
:10A4500070130300020600F07F0312D5082B05D10C
:10A46000010700F00F0306D50E48704710F0780F73
:10A4700012D100F00F034C2000EB43100A4B18449C
:10A480007047082B05D1020700F00F0306D50748D7
:10A49000704710F0780FF6D000207047044800EBAA
:10A4A00043107047080F0020BC0D0020281000202A
:10A4B000280F00200149024806F093BBE40D00205C
:10A4C000100900200146014806F026BBD8020020F2
:10A4D00002480022002303F0E5BE00BFD80200209E
:10A4E00010B5054CFFF7F4FF20B1011D204606F022
:10A4F00059FAF7E710BD00BF8402002010B588B0FC
:10A5000018480022002301A903F014FD30B3164BB4
:10A510001648079306AA4FF482510224069405F0C8
:10A5200060FFFFF7DDFF0F480022002301A903F0C1
:10A5300001FD50B10E4B0D4806AA4FF48251CDE9F2
:10A54000064305F04EFF00200AE001980423406016
:10A550000374FFF7B7FFFFF7ADFFF4E70198406022
:10A5600008B010BD84020020781F03003C130300D4
:10A57000961F030098B5022800AF11D8104B1C5C41
:10A58000FFF7BCFF50B1002202740472FFF79AFF7C
:10A590000C4B93F824300BB1FFF78CFFBD4698BDF0
:10A5A0006C4688B06A46084BC2E90530032342F87E
:10A5B000103F06484FF4C25105F013FFA546EDE7E2
:10A5C00088210300BC0D0020B21F03003C130300D0
:10A5D0002DE9F04190F80280064600AF4046FFF7B3
:10A5E00039FF18F0800FF478054625D09CB1032C74
:10A5F0001FD06D4688B06A462A4BC2F81C80C2E95B
:10A600000534042342F8103F27484FF4015105F068
:10A61000E8FEAD460DE0FFF771FF034648B10122A9
:10A62000AC770274032202739D60FFF74BFFFFF7C4
:10A6300041FFBD46BDE8F08154B1012CD9D1FFF7EF
:10A640005DFF03460028F4D06C7704740473EBE7D5
:10A65000FFF754FF0028ECD0B278144B12F0800FB3
:10A6600002F0080111D041B1D3F8A836EB60012304
:10A670000374022303738560D7E702F00F021421ED
:10A6800001FB0233D3F80836F0E711B1D3F8A8374D
:10A69000ECE702F00F02142101FB0233D3F8083774
:10A6A000E4E700BFCD1F03003C130300007002402D
:10A6B00013B5124802F018FE114B98421AD11148F6
:10A6C00002F08CFA0024104802F0CEFA0F4910482C
:10A6D00000944FF0FF334FF4806203F059FF0D49AF
:10A6E0000B4806F08EF90C480C4906F05DFA20463E
:10A6F00002B010BD6FF00400FAE700BF61A70200CE
:10A700000000AD0B8B210300BC140300902000203F
:10A7100010090020F91F0300E40D002039A90200F0
:10A7200010B50E49BFF35B8F002351E8002F012ABB
:10A7300003D141E800300028F7D1BFF35B8F0CD183
:10A7400051F8044C1439204605F0B0F8783004D1A3
:10A750002046BDE8104005F084B810BDDC0D002097
:10A760002DE9F04188B0064600AF1422002107F120
:10A770000C0005F0FCFD3378013B052B21D8DFE808
:10A7800003F09B0313138D1503233B750024FFF780
:10A79000B5FE0346A8B1047400F10802D7E905012B
:10A7A00082E80300184634E00423EEE796F80280BE
:10A7B0004046FFF74FFE837A054633B1013B022B3B
:10A7C00068D92037BD46BDE8F08118F0800FF478D5
:10A7D00024D09CB1032CF4D06D4688B06A46374B28
:10A7E000C2F81C80C2E90534042342F8103F344803
:10A7F0004FF4015105F0F5FDAD46E2E7FFF77EFEAF
:10A8000003460028DDD00122AC77027403220273D4
:10A810009D60FFF757FEFFF74DFED2E754B1012CC4
:10A82000DAD1FFF76BFE03460028CAD06C770474B8
:10A830000473EDE7FFF762FE04460028C1D0012350
:10A840000374022303738560B07805F10C0106F0F0
:10A850004CF870B16E4688B06A461A4BC2E90530B2
:10A86000032342F8103F16484FF4C25105F0B9FDDA
:10A87000B546154AE968B2F88C328B4206D95B1AA4
:10A88000A2F88C3202F06CFF2046C2E70023A2F847
:10A890008C32F9E73046FFF79BFE92E7381D02F055
:10A8A00039FF7B79052B03D13B7913F0600F88D0FA
:10A8B000064B7B6101246AE7022468E7CD1F030091
:10A8C0003C13030004200300BC0D0020280F0020CF
:10A8D00038B5002464F07F00C0B2FFF7BBFD01343F
:10A8E00005F06CFD082CF5D10E4D0024E0B2FFF709
:10A8F000B1FD036903B90561013405F05FFD082C62
:10A9000005F14005F2D1084805F058FD074BD3F892
:10A910007C2212B9064AC3F87C22064805F04EFD97
:10A92000002038BD4C140020080F0020BC0D002072
:10A930004C100020281000202DE9F047A34CDFF830
:10A9400090A286B0804600AFFFF7C2FD064618B958
:10A950001837BD46BDE8F08794F82520337C06F112
:10A9600004093AB9002B00F0AF809948494606F037
:10A9700019F8E9E7042B00F29581DFE813F0A50050
:10A9800005003B015101780118F8043C83B9B36814
:10A990006D4688B05B7A6A468E498F48C2E90513D6
:10A9A000032342F8103F4FF4C25105F01AFDAD46A3
:10A9B000337BB568032B39D8DFE803F0023F6E73B1
:10A9C0006E6908220021304605F0D1FC834B844893
:10A9D000D3F880243270D3F884247270D3F888249A
:10A9E000D3F88C1442EA01227280D3F89024D3F871
:10A9F000941442EA0122B280D3F89824D3F89C340C
:10AA000042EA03230822F3803146EA6005F0A4FC01
:10AA10002B68687A0021984796F90030002B08DBF4
:10AA2000F38833B1A4F88C3202F09AFE49465046BE
:10AA30009DE70023A4F88C32F8E76B7F002BF5D05C
:10AA40002B7F002BF2D0002666486E774FF0FF3246
:10AA50004FF0FF332E7705F0C7FC6B693B606B68E6
:10AA6000C7E901363946687A02F080FC5E4B9842AD
:10AA70000ED06D4688B06A465C4BC2E905300323B0
:10AA800042F8103F54484FF4C25105F0AAFCAD46BD
:10AA9000544805F0ABFCC9E72B680121687A984758
:10AAA000C4E7AB7A6BB9EB7F5BB94E484FF0FF322E
:10AAB0004FF0FF3305F098FC02F082FE494805F0A4
:10AAC00095FC2B680221E9E7337A042BAED8DFE846
:10AAD00003F059032367730002F0D0FB05460028FA
:10AAE000A4D102F007FBBFF35B8F4149012351E87A
:10AAF000002F002A03D141E800300028F7D1BFF32E
:10AB00005B8F93D141F8085C41F8105CE0696361A8
:10AB1000143904F04EFE89E7002565F07F00C0B2CD
:10AB2000FFF798FC037A13B1407A02F0F9FF013580
:10AB3000082DF2D194F854311BB194F8550102F06C
:10AB4000EFFF0025E8B2FFF785FC037A13B1407AE6
:10AB500002F0E6FF0135082DF4D194F874321BB1F0
:10AB600094F8750202F0DCFF002002F069FB01237B
:10AB700084F825302368002B3FF458AF00210220D1
:10AB8000984753E7002584F8255002F085FFFFF72A
:10AB9000C7FD2368002B3FF449AF29460420EFE7A7
:10ABA000002A3FF443AF02F073FB2368002B3FF40D
:10ABB0003DAF00210520E3E72368002B3FF436AFCB
:10ABC000002A3FF433AF00210620D9E7BC0D002056
:10ABD00084020020242003003C1303000070024084
:10ABE000C00D0020F40D00200000AD0B4A20030032
:10ABF000DC0D002008F110054FF0FF334FF0FF325D
:10AC0000284605F0F1FBFFF763FE284605F0EEFB52
:10AC100058F8283C002B3FF409AF00210120AFE792
:10AC200094F8743293B1012584F8895284F88852DB
:10AC3000FFF764FC90B9234B7B61022322483B6100
:10AC400007F110024FF4825105F0CBFB58F8283C75
:10AC5000002B3FF4EBAE00210A2091E71B4A05745C
:10AC600005738260FFF72EFCFFF724FCEEE7184B1C
:10AC70007B6102233B6107F110024FF482511248BD
:10AC800005F0AFFB05F0A8FD02F006FF02F028FA80
:10AC9000FFF726FCFFF71CFE05F097FD0D4802F0BC
:10ACA00023FBC3E66D4688B06A460B490648C2E9F5
:10ACB0000513032342F8103F4FF4C25105F091FBF6
:10ACC000AD46B3E6702003003C13030028100020BB
:10ACD0008420030061A702009B20030038B5164DB5
:10ACE00095F824402CBB05F1380005F0A0FE204665
:10ACF00000F006FE22460121E8612720FEF7B2FEA1
:10AD000005F063FDFFF7E4FD044610B9012385F863
:10AD100024300A4B1B680BB1FFF7CCFB4FF080438C
:10AD2000D3F83834DB0702D50020FFF723FC204698
:10AD300038BD0024FBE700BFBC0D0020D802002076
:10AD4000074B93F824203AB193F82530002B14BF19
:10AD500000206FF0120070476FF01200704700BFC4
:10AD6000BC0D00207FB5034602781B7902F00F006E
:10AD70007BB958B1104B05930223049304AA4FF4F6
:10AD800082510E4805F02DFB4FF0FF3007B05DF803
:10AD900004FB082801D90A4BEDE7012B09D1130761
:10ADA00007D4084B05930223049304AA4FF484515B
:10ADB000E7E70020EAE700BFB22003003C130300EE
:10ADC000D1200300F020030030B5164B93F8243057
:10ADD00087B004461BB305782846FFF73BFBB0B1AC
:10ADE000457223798372638843602078618810F00C
:10ADF000080F10D14B1E0B420DD00B4B05930B4887
:10AE0000022304AA4FF48251049305F0EAFA6FF08A
:10AE1000150007B030BD05F063FD0020F9E76FF0C5
:10AE20001200F6E7BC0D0020062103003C130300CE
:10AE300030B5194B93F8242087B0054642B393F8F8
:10AE400025302BB3FFF706FB044618B96FF0150049
:10AE500007B030BD837A012B0FD007D9023B012BFD
:10AE600007D96369A3610020E060F1E702F0B0FC5C
:10AE7000F7E7284602F020FCF3E7084B0593084863
:10AE8000022304AA4FF48251049305F0AAFADDE7E5
:10AE90006FF01200DCE700BFBC0D00202E21030084
:10AEA0003C13030038B50E4B93F82420054682B1BD
:10AEB00093F825306BB1FFF7CDFA68B115F00804AF
:10AEC0000AD1284602F01AFC284602F07DFE2046F0
:10AED00038BD6FF01200FBE76FF01500F8E700BF18
:10AEE000BC0D002038B50C4B93F8242005460C46C9
:10AEF00062B193F825304BB1FFF7ACFA48B144B1D9
:10AF0000284602F0E1FB2070002038BD6FF01200EF
:10AF1000FBE76FF01500F8E7BC0D002070B5134E8D
:10AF200096F824300446C3B1FFF794FA0546B8B149
:10AF3000230705D4204602F0E1FB204602F044FE40
:10AF40002B7A83B901232B7296F825300BB9002098
:10AF500070BD204602F0E4FDF9E76FF01200F7E75C
:10AF60006FF01500F4E76FF07700F1E7BC0D0020FB
:10AF70002DE9F047DFF8249184B01E4699F824307B
:10AF800000AF80468A461546002B00F0838099F872
:10AF90002530002B7ED010F0800F14D0FFF75AFA26
:10AFA000044680B1037AABB96C4688B06A463C4B24
:10AFB0003C48C2E90538032342F8103F4FF4C25120
:10AFC00005F00FFAA5466FF0150420461037BD4670
:10AFD000BDE8F0874FF0FF334FF0FF3209F1380042
:10AFE00005F002FAA37F33B109F1380005F0FEF94C
:10AFF0006FF00A04E9E7A37A55B3002B38D0012398
:10B00000A3774FF00009391D4046C7E901A5C7F8ED
:10B010000C9002F0ABF9244B984237D084F81E9084
:10B020000EB1C6F800906C4688B06A461F4BC2E964
:10B030000530032342F8103F1A484FF4C25105F07F
:10B04000D0F9A5466FF00404194805F0CFF9BCE724
:10B05000E27F02B1E577002BD1D102F0C1FB804540
:10B06000CDD002F0ADFB124805F0C0F90024ACE7EA
:10B07000B9F80A309D42F0D26268B5FBF2F302FBE8
:10B080001353002BE9D10123E377E6E706B13560DE
:10B090000024D9E76FF0120497E700BFBC0D002031
:10B0A000502103003C1303000000AD0B6F2103008F
:10B0B000F40D00202DE9F8431D462D4B904693F8E2
:10B0C000242000AF81460E46002A4DD093F825304B
:10B0D000002B49D010F0800F19D111B9B8F1000F31
:10B0E00015D14846FFF7B6F9044680B1037A8BB90B
:10B0F0006C4688B06A461F4B1F48C2E905390323D6
:10B1000042F8103F4FF4C25105F06BF9A5466FF0BD
:10B11000150015E04FF0FF3318484FF0FF3205F0EF
:10B1200063F9E3689845C14628BF99465EB9B8F10E
:10B13000000F08D105B12B60104805F057F9002029
:10B14000BD46BDE8F883A1694A46304605F004F9DA
:10B15000A3694B44A361E368A3EB0903E360002DFB
:10B16000EAD0C5F80090E7E76FF01200E8E700BF0B
:10B17000BC0D0020502103003C130300F40D0020FF
:10B18000F8B5274D95F8243000AF0646002B44D083
:10B1900095F82530002B40D0030614D4FFF75AF958
:10B1A000044680B1037A93B96C4688B06A461D4B59
:10B1B0001D48C2E90536032342F8103F4FF4C2513F
:10B1C00005F00FF9A5466FF01500BD46F8BD4FF02C
:10B1D000FF334FF0FF3205F1380005F005F9E36861
:10B1E000B3B9012663692677A361637F83B1FFF753
:10B1F00085F930B905F1380005F0F8F86FF00B006B
:10B20000E3E7067484600673FFF75CF9FFF752F911
:10B21000064805F0EBF80020D7E76FF01200D4E7FE
:10B22000BC0D0020502103003C130300F40D00204E
:10B2300010B5084B93F824300C462BB1FFF70AF9F0
:10B2400028B10460002010BD6FF01200FBE76FF022
:10B250001500F8E7BC0D0020014B1860704700BFD7
:10B26000BC0D002008B5074B93F8243023B1FFF73D
:10B27000F1F820B1406808BD6FF01200FBE76FF0F5
:10B280001500F8E7BC0D002013280ED8084A12F864
:10B29000103053B102EB4002527832B10868434398
:10B2A000002093FBF2F30B6070476FF015007047BE
:10B2B00095210300054B0122C3F8002590F8761074
:10B2C00009B1DA6070471A605A6070470070004038
:10B2D00070B5087900F01F04072C86B023D80B78CE
:10B2E0000B2B15D8DFE803F0070707071406141423
:10B2F0000E10141204234A78032A18D0042A28D0E6
:10B30000314B06E00523F6E70623F4E70723F2E7CF
:10B310002E4B0593022304932D48002304AA4FF4D7
:10B320008251FCF76BFC6FF0150006B070BD012573
:10B330004A8844F20A06B2423FD00CD844F20306CF
:10B34000B24216D044F20506B24234D0AAB3214B21
:10B35000DFE70025ECE744F21406B2422FD044F2B6
:10B360002806B2422DD044F20F06B242EFD103229A
:10B3700000E00022C0F340101B0243EA005343EAFE
:10B38000053343EA0243220102F1804202F5E04222
:10B390000020C2F81835230103F1804303F5E04390
:10B3A0008A79C3F81425C3F810050B4B4A79234456
:10B3B00083F89020B9E70122DCE70222DAE70422D1
:10B3C000D8E70522D6E700BFDC210300BD2103003A
:10B3D000D412030000220300B80000202DE9F04140
:10B3E00088B00C4602AF4FF0FF3379484FF0FF3280
:10B3F00002F0B0FF6668731EFE2B0CD9754B7B61A3
:10B4000002233B617448002307F110024FF482517C
:10B41000FCF7F4FB1BE00021704DDFF8C4C10A46C5
:10B4200026FA01F313F0010340D01CF80130C3B930
:10B430006C4688B002AA6B48C2E90501032142F8B4
:10B44000101F65484FF4C251FCF7D8FBA5466FF0BA
:10B4500015045F4802F05AFF20461837BD46BDE884
:10B46000F08105EB011894F811E0D8F81805BEF149
:10B47000000E18BF4FF0010E20F0807040EA0E6001
:10B48000C8F8180501F15100000101322B50D2B269
:10B4900001310829C4D1237CA3F10801062916D85B
:10B4A000DFE801F0201522150915130001F1510004
:10B4B00000012B50ECE702234849012AC1F8F0357E
:10B4C000637C13D9A3B1484B99E70323F4E76C4697
:10B4D00088B002AA4549C2E90513032342F8103F88
:10B4E0000023AEE70023E7E70123E5E7082B1BD89D
:10B4F000C1F8F43521685300D9B9E16899421CD2EA
:10B500006C4688B002AA3A48D3610423C2E9050117
:10B5100042F8103F304800234FF40151FCF76EFB16
:10B52000A5466FF00B0494E76C4688B002AA314937
:10B53000D1E7898901FB0333DFE7284BA168C3F812
:10B540002C16A446C3F83026BCE80F002A4D05F19E
:10B5500064060FC6DCF80030336000262E662368D0
:10B56000AC4683B30FCB05F1780484E80F006C661A
:10B57000A5F8886038B3BFF35B8F5CE8003F4CE808
:10B580000062002AF9D1BFF35B8F1C49A86F1C4AE7
:10B590004FF400448C463146E0FB04C10023604672
:10B5A000FAF7AEFD0022CDE90001002305F1080005
:10B5B00003F08AFD13484FF0FF324FF0FF3302F0E3
:10B5C000C9FE2C6E45E70C48FFF774FEF2E700BF9A
:10B5D000F80000202B220300D4120300007000406A
:10B5E000480100204922030088220300632203004F
:10B5F000DD220300BA220300B80000203F420F0002
:10B6000040420F000801002010B50E4B0024C3F883
:10B610000441D3F80421C3F81041D3F810211222B9
:10B62000C3F804230720FEF7EDF922460121072085
:10B63000FEF718FA0448836C13B9403002F066FE36
:10B64000002010BD00700040B800002038B52E4B1F
:10B65000D3F80421002A49D00022C3F80421D3F8EA
:10B6600004112A4C01219960C3F80025636E254618
:10B67000BBB3E36FB4F8882033B104F16401984799
:10B68000012814D0022827D0B4F88830B4F88420D8
:10B690009A4221D90133A4F888301B4BD3F82C26C9
:10B6A000D3F8341689B202EB4102C3F82C26A36FFB
:10B6B00023B9BDE838401548FFF7FCBDBFF35B8FE9
:10B6C00055E8003F5A1E45E800210029F8D1BFF394
:10B6D0005B8F012BEDDC38BDA36F13B10C4805F077
:10B6E00011FC0C48BDE8384002F010BED3F8101130
:10B6F0000029F0D0C3F81021D3F8102101229A605C
:10B700001A605A60E7E700BF00700040B8000020F0
:10B71000C000002008010020084B70B5C31A0D4678
:10B7200007499B10044659430648402204F0BBFEDB
:10B730002B4601462046BDE87040184760160020A1
:10B74000B76DDBB6D810030073B50C4C0C4A402320
:10B75000041B00930D460B460A49A410614306469C
:10B76000094804F0CCFE011E05DA30462B4602B033
:10B77000BDE87040184702B070BD00BF60160020E1
:10B7800069050300B76DDBB6D8100300002270B561
:10B79000012104461046FEF765F90F4800F064FEEB
:10B7A0000E4B984215D100F06FFE26690C493046C9
:10B7B00003F0ECFF00280BDB012535642469084900
:10B7C00004F11C0003F0E2FF002801DBE564002027
:10B7D00070BD6FF00400FBE719B802000000AD0B6C
:10B7E000CC14030070B501460C2309484B43C41820
:10B7F000D4E90E56403300221844A26304F040FE00
:10B800002DB132462B460348BDE87040184770BD45
:10B8100060160020D810030010B1012804D0704732
:10B82000034B1B6C5B0701D1FFF7DCBF704700BF08
:10B830006016002008B54FF02003EFF3118183F369
:10B840001288BFF36F8F124A136843F00200106032
:10B85000DA0708D481F31188BFF36F8F0120BDE8A8
:10B86000084004F010BF4FF08043D3F80C24D3F805
:10B870000C34DB07EED5074804F002FE81F3118893
:10B88000BFF36F8F0020BDE80840FFF7ABBF00BFDC
:10B89000B0160020A01600201FB500220123CDE91C
:10B8A0000223094ACDF800D06B46CDF804D004F04D
:10B8B00054FE002805DB4FF480420023684602F066
:10B8C00049FD05B05DF804FB8705030010B54FF096
:10B8D0002003EFF3118483F31288BFF36F8F074ABD
:10B8E000136823F00201DB07116002D4012004F089
:10B8F00006FF84F31188BFF36F8F10BDB0160020D0
:10B90000024AC3B21C2003FB0020704760160020CF
:10B910002DE9F0413849BFF35B8F0746012251E81A
:10B92000003F41E800200028F9D1BFF35B8F33B915
:10B93000324933484B60CB608A6003F03AFF7B1E8C
:10B94000012B2BD8012F07D14FF08043D3F81C34A3
:10B9500003F00303012B21D005F04DF80546F8B99B
:10B96000284B1B78E3B14FF080430222C3F8082331
:10B970000646DFF894804FF08044D4F81824D4F8B9
:10B980001834D20316D503F00303012B01D0012F85
:10B9900010D15DB386F31188BFF36F8FBDE8F081DE
:10B9A0004FF02003EFF3118683F31288BFF36F8FFC
:10B9B0000125DEE7ADB13046FDF7B2FFD4F818350A
:10B9C000002BDAD1D4F80421002AD6D0C4F80431EF
:10B9D000D4F804310123C4F81835C8F88031A360C5
:10B9E000CBE70021212003F0F7F8E7E74FF0804391
:10B9F0000222C3F80423D1E75C1600204C16002075
:10BA00007C1600208D19002000E100E008B50748F1
:10BA100004F09AFF38B10648FEF7F4FC0448FBF73F
:10BA200079F9002008BD6FF01200FBE71411030044
:10BA300035BA02000A2838B5074D044604D1AB6870
:10BA40000D215B6828469847AB6803485B68E1B204
:10BA50009847204638BD00BF1411030030B5406838
:10BA6000057B01F01F04B2F5001F85B044EA4514C0
:10BA700005D1204600F088FF002005B030BD00252C
:10BA8000B2F5800FCDE9025514D1B3F1007F0CBFA0
:10BA9000042305238DF808300023194602AA204606
:10BAA00000F0BAFD234B98423DD10121204600F021
:10BAB00025FFE1E7B3F1C06F27D0B3F1007F14BFDA
:10BAC000012302238DF80830836823FA01F111F075
:10BAD0000101E1D1B2F1A07FDED104F01F036209C0
