:020000022000DC
:10600000F02900207189020001E3020045890200A5
:106010004589020045890200458902000000000010
:106020000000000000000000000000000D860200DB
:106030004589020000000000C58502004589020074
:10604000898602008986020089860200898602000C
:1060500089860200898602008986020089860200FC
:1060600089860200898602008986020089860200EC
:1060700089860200898602008986020089860200DC
:1060800089860200898602008986020089860200CC
:1060900089860200898602008986020089860200BC
:1060A00089860200898602008986020089860200AC
:1060B000898602008986020089860200898602009C
:1060C000898602008986020089860200898602008C
:1060D000898602008986020089860200898602007C
:1060E000898602008986020089860200898602006C
:1060F000898602008986020089860200898602005C
:1061000053B94AB9002908BF00281CBF4FF0FF311E
:106110004FF0FF3000F00CB8ADF1080C6DE904CE83
:1061200000F008F8DDF804E0DDE9022304B0704770
:10613000704700BF2DE9F04786468C460846089E0A
:10614000154674461946002B40F0C2808542B2FACB
:1061500082F245D94AB1C2F1200300FA02FC2EFABC
:1061600003F3954043EA0C0C94404FEA154EA8B255
:10617000BCFBFEF8230C0EFB18CC08FB00F943EA2D
:106180000C43994528D9EB1808F1FF3704D29945FB
:1061900002D9A8F102072B44A3EB0903A4B2B3FB75
:1061A000FEFC0EFB1C330CFB00F044EA0344A0424F
:1061B00014D92C190CF1FF3304D2A04202D9ACF14E
:1061C00002032C44241A43EA07401EB1D4400023A2
:1061D00034607360BDE8F0874746DDE76346F1E76A
:1061E00092BB431B01214FEA154EAFB2B3FBFEFC3D
:1061F000200C0EFB1C330CFB07F840EA03439845C8
:1062000062D9EB180CF1FF3004D2984502D9ACF1F9
:1062100002002B44A3EB0803A4B2B3FBFEFC0EFB6D
:106220001C330CFB07F744EA0344A7424ED92C1950
:106230000CF1FF3304D2A74202D9ACF102032C4483
:10624000E41B43EA0040C0E7C2F1200320FA03F157
:10625000954090402EFA03F303434FEA154EAFB238
:10626000B1FBFEFC0EFB1C10190C0CFB07F841EAFD
:106270000041884504FA02F422D969180CF1FF3074
:1062800004D2884502D9ACF102002944A1EB0801EF
:106290009BB2B1FBFEFC0EFB1C110CFB07F743EAA3
:1062A00001439F420ED9EB180CF1FF3104D29F42FB
:1062B00002D9ACF102012B44DB1B41EA004192E719
:1062C0006046E3E76146F7E76046A3E76346B7E762
:1062D000834206D916B9002108467BE7C6E900E0EB
:1062E000F9E7B3FA83F78FB9834201D3724508D82F
:1062F000BEEB020460EB030301209C461EB90021A3
:1063000068E73846FAE7C6E9004CF8E7C7F1200C21
:10631000BB4022FA0CF41C432EFA0CF120FA0CF3C9
:10632000B84001434FEA14490EFA07F5B3FBF9F8F8
:106330001FFA84FE09FB18300B0C08FB0EFA43EA27
:1063400000439A4502FA07F240D9E31808F1FF30FA
:1063500004D29A4502D9A8F102002344A3EB0A0310
:1063600089B2B3FBF9F809FB183308FB0EFE41EACA
:1063700003418E452CD9611808F1FF3304D28E45B4
:1063800002D9A8F10203214443EA0040A0FB02988D
:10639000A1EB0E014145CE46434602D306D14D4501
:1063A00004D2B9EB020E68EB04030138002EA6D02C
:1063B000B5EB0E0261EB030101FA0CFC22FA07F3C4
:1063C0004CEA0303F940C6E9003198E74046C5E7C7
:1063D0004346D9E70146024883685B68184700BF17
:1063E00098F4020013B5084B02689B681B890446A9
:1063F000534301A90020019303F062F910B9019BF6
:106400009B12236002B010BD98F40200F8B5044658
:1064100008460D4607F07BFF00260746BE4206DB16
:10642000216806482A46BDE8F84007F04DBAA95D44
:10643000A36820465B6898470136EFE74CF90200F5
:106440002DE9F0479AB0654808F01CFC60B3644839
:1064500008F018FC40B3624808F014FC20B361480F
:1064600007F009FA0446604807F005FA05465F4858
:1064700007F001FA2C4317D1002815DB142221461E
:106480000DEB020007F055FF0DF10E030793584D79
:106490000223089355F8066C304608F0F3FB38B930
:1064A0003168544807F010FA00201AB0BDE8F087B0
:1064B00015F8013C63B155F8060C836829461B6842
:1064C0009847021E07DA4C48214607F0FDF9EBE732
:1064D0006FF08502F7E70134032C05F11405D9D1DB
:1064E000464CA368DB68002B72D12168444807F052
:1064F000EBF9DFF8F0A0434E434D002101F1010913
:10650000424807F0E1F92368414ACDF80090402164
:106510000AA802F001FB0AA93848FFF777FF5046A6
:1065200007F0C3F94FF0010807F0C7F90A2705A8DB
:10653000CDF81880ADF82470FFF74CFFBDF80E10B1
:106540000491304607F0C0F904A8FFF74BFF049907
:10655000284607F0B9F9504607F0A7F9224807F096
:10656000A4F907F0AAF905A8CDF81880ADF82470B1
:10657000FFF730FFBDF80E100491304607F0A4F984
:1065800004A8FFF72FFF0499284607F09DF9164845
:1065900007F08BF9154807F088F907F08EF905A880
:1065A000CDF81880ADF82470FFF714FFBDF80E1079
:1065B0000491304607F088F904A8FFF713FF049907
:1065C000284607F081F9094807F06FF9494695E731
:1065D00010492046984700288BD086E748F40200EF
:1065E0005CF4020024F702001CF7020014F702001A
:1065F000DEF6020062F9020086F9020084F402006D
:10660000A8F90200F2F90200F5F90200C6F9020049
:10661000D8F9020050010020014B1B68184700BF49
:1066200058010020014B1860704700BF580100203E
:1066300007B50B46002102460091034800F014F90B
:1066400003B05DF804FB00BF196602002DE9F047B6
:10665000058B04462807904611D4022905F007054A
:1066600040F0CD80204607F026FB78B10138218B21
:10667000042811D8DFE800F0C3106D8595000129CA
:106680000CBF45F0100545F02005258388F31188DF
:10669000BFF36F8FBDE8F08701F0070AAA4500F04D
:1066A000A6800027B9463E46A368002B00F0BD80B7
:1066B00041F00801218388F31188BFF36F8FA1682F
:1066C000002900F0BB800D68002900F0B780D1F8E8
:1066D0000480334652462046C047002D76D02B68B2
:1066E00029461D46F0E701F007035A1F012A1BD86F
:1066F000002221F00701062B276889B2C4E9002295
:1067000009D13B4603E0628B013262831B68002B98
:10671000F9D141F002012183204607F0CCFA00288C
:106720007BD041F0200177E0042B0AD121F0070152
:1067300089B22183204607F0BEFA10B141F0200152
:106740002183218B01F0070AAA4550D00027B946C2
:10675000AAE7236921F0070141F00601062DD3F8CD
:10676000009021832DD1B9F1000F40D041F00801F4
:10677000218388F31188BFF36F8F3A492046C847B9
:1067800029E021F00701236941F0040189B2042DB9
:10679000D3F804902183E6D000273E464FF0040A48
:1067A00082E721F00701236941F0050189B2052D37
:1067B000D3F808902183D6D000273E464FF0050A33
:1067C00072E700273E464FF0060A6DE72B4687E743
:1067D000B9F1000FD1D14FF02003EFF3118883F30B
:1067E0001288BFF36F8F238B23F008032383258B3D
:1067F000EA062ED525F01003238305F00705666908
:10680000218B002EBFF66FAF00232768C4E9003349
:1068100021F0070141F001012183218B01F0070ADA
:10682000AA454FF000097FF43FAF002F9BD041F005
:106830000801218388F31188BFF36F8F002FC7D021
:106840003D68394633465246204607F060FA2F46E7
:10685000F4E7AB067FF51AAF25F02003238305F09C
:106860000705FFE63BDD02002DE9F04F814695B0BC
:106870008B4617461C460025387808B9284658E349
:106880007B1C2528039306D05946C8470028C0F230
:1068900050830135FBE1182200210EA807F049FDC5
:1068A0007B78252B7DD00023781C98469E469C46FD
:1068B0001E46014610F8012B2B2A00F0A18000F2A1
:1068C0009880202A00F09F80232A00F09F802BB11F
:1068D0009DF8403043F040038DF84030B8F1000F90
:1068E00005D09DF8403043F020038DF84030BEF1D4
:1068F000000F05D09DF8403043F010038DF8403074
:10690000BCF1000F05D09DF8403043F008038DF82E
:1069100040302EB19DF8403043F004038DF84030F4
:106920009DF8403003F04400442803D16FF38613F0
:106930008DF840309DF840302A2A43F080038DF8CE
:1069400040307FD19DF8412042F001024B1C8DF870
:1069500041201A782E2A9DF841200CBF01210021E8
:1069600061F341028DF8412078D15A782A2A6ED0FD
:10697000013300224FF00A0C194611F8010BA0F167
:106980003006092E40F295809DF840101292C1F316
:10699000400040EAD2700A4660F341028DF8402080
:1069A0005CE0BA1C03928DF843309DF84130DA0761
:1069B00040F12E8154F8048BB8F1000F07DA9DF8EE
:1069C000402042F004028DF84020C8F100085E0724
:1069D00040F1278154F804ABBAF1000F80F2268110
:1069E0009DF841306FF341038DF841304FF0FF3A8D
:1069F0001CE12D2A0DD0302A7FF469AF012358E71E
:106A00004FF0010C55E74FF0010E52E74FF001082F
:106A10004FE701264DE70EFB0262303A0346184667
:106A200010F8016BA6F1300CBCF1090FF3D99942B3
:106A30008FD09DF840101192D20F62F341018DF872
:106A4000401086E70B4600224FF00A0EE7E79DF85C
:106A5000412042F004028DF8412002331A786C2A5A
:106A600047D02BD8682A31D06A2A4BD04C2A51D033
:106A70001A4612F8013B0392782B9DF841208DF8BD
:106A8000433000F2BE806D2B51D8692B00F2B980E3
:106A9000572B67D8412B03D0453B022B00F2B18026
:106AA0009DF84230042262F302038DF84230012344
:106AB00073E00CFB0202303A0B465DE7742A25D0E6
:106AC0007A2AD5D19DF8412006210CE05A78682A0F
:106AD0009DF8412006D1012161F3C6028DF84120C5
:106AE0000233C5E7022161F3C6028DF8412001336C
:106AF000BEE75A786C2A9DF8412001D10421EBE7CA
:106B00000321F0E79DF841200521ECE79DF84120A5
:106B10000721E8E7BDF8402022F4F04222F002020B
:106B200042F4804242F00202ADF84020DFE76E3BC3
:106B3000D9B201238B4040F282410B4237D113F08E
:106B4000240F51D1D8075CD59DF84230032161F361
:106B500002038DF8423002F07803A3F140014B426A
:106B60004B411AE0A3F15801C9B2012000FA01F12A
:106B700011F4624F94D140F6010631421DD111F457
:106B8000043F3ED09DF8423060F3020302F07802E9
:106B9000402A8DF8423034D000239DF84020C2F3C3
:106BA00040010B4363F341028DF84020FDE69DF860
:106BB0004230022161F30203E8E79DF8421002200F
:106BC00002F0780260F30201402A8DF8421002BF01
:106BD0009DF8401041F001018DF84010632BDBD18E
:106BE000131E18BF0123D8E79DF84230032161F33B
:106BF000020312F0780F8DF8423014BF01230023F6
:106C0000CBE79DF8403043F001038DF84030C3E7F7
:106C10009DF94020002AB4BFDDF844804FF0FF38D2
:106C2000D5E698077FF5E2AEDDF848A09DF8411063
:106C30000023CDE911339DF8423003F00703012B07
:106C4000C1F3C30133D1CB1E042B04D8DFE803F01A
:106C5000214646212100236801294FEAE372CDE94C
:106C60000E321CD19DF93830DA17CDE90E320434DA
:106C70009DF8403013F0030650D0039B3A46594626
:106C8000484607F078F90028C0F253810544039F75
:106C9000F2E554F8043BDA17CDE90E32E8E70229B1
:106CA000E5D11AB243F3C033CDE90E23DFE7022B5F
:106CB00024D1CB1E042B04D8DFE803F018101018E1
:106CC0001800012954F8043B4FF0000214D00229A7
:106CD000CDE90E32CCD19BB20E93C9E7073424F034
:106CE0000704F4E80223CDE90E23C1E754F8043B7E
:106CF0000E9300230F93BBE7DBB2CDE7042B08D143
:106D0000073424F00704D4E900230834CDE90E2326
:106D1000AEE7032BACD154F8043BDDE79DF843000C
:106D20007828B4D862281CD825283FF4ADAD58285F
:106D3000ADD10DF136030093DDE90E0108AB10AAC9
:106D400007F0D3F8BAF1000F074680F29A80002FBF
:106D50009DD00DF13603D81B002E00F0C18001300C
:106D6000BEE06338152892D801A252F820F000BF87
:106D7000456E0200576E02008F6C02008F6C02009D
:106D80008F6C02008F6C0200576E02008F6C020045
:106D90008F6C02008F6C02008F6C0200E56E0200A7
:106DA0007D6E0200A36E02008F6C02008F6C0200E9
:106DB000C96D02008F6C02007D6E02008F6C0200B4
:106DC0008F6C02007D6E0200BAF1000F0E9F35DB62
:106DD0005146384607F0C6FA07EB000A002F3FF489
:106DE00056AF00269DF8423013F01002059200F0D5
:106DF000938002305B06119A48BF129B04921044A4
:106E000048BFC018B8F1000F40F3A0809DF84020A3
:106E1000A8EB0008C2F380035007069300F19680A8
:106E2000510640F189803EB159463046C847002896
:106E30007FDB069B01351E4630227EE0384607F098
:106E400066FAC9E70E9B8DF82030002608AF0DF1D9
:106E5000210A0120C6E719075CBFC3F300135E01D6
:106E6000DDE90E2348BF2B26002BBFF662AF52424E
:106E700063EB4303CDE90E232D265AE7002658E79E
:106E800000269DF840200DF13603DB1B6FF38612C0
:106E90009A458DF840207FF65AAFAAEB0303119371
:106EA00055E70E9890B30DF13603009310AA08AB86
:106EB000002107F01AF8BDF8423003F0EF0343F465
:106EC000F04343F01003BAF1000F0746ADF842302B
:106ED000D6DA00283FF4DBAE0DF13603181A00268F
:106EE0009A467FE70E9B07293FF6D1AEDFE801F017
:106EF0000C04060C08080C0C1D70C8E61D80C6E6C4
:106F0000EA17C3E90052C2E61D60C0E62E4F0646EE
:106F100007F1050A052065E71A0748BF013069E750
:106F20000793104606925946C8470028DDE9062314
:106F300004DA15B0BDE8F08F202243461946002937
:106F400003F1FF33ECDC45446D1A98462EB15946E7
:106F50003046C8470028ECDB01359DF84230DA06A0
:106F600001D41B0705D559463020C8470028E0DB6F
:106F70000135059B33B19DF843005946C8470028A9
:106F8000D7DB0135049E2E4405E059463020C84722
:106F90000028CEDB0135731B002BF6DC53463A4646
:106FA0005946484606F0E7FF0028C2DB0544A844DE
:106FB000A8EB0503002B7FF76AAE59462020C8478F
:106FC0000028B6DB0135F3E710FA020003F0AABC93
:106FD0002DE9F84305464FF02003EFF3118683F3C4
:106FE0001288BFF36F8F0E4B0E4F1C68DFF838808E
:106FF0004FF00C092CB986F31188BFF36F8FBDE8F1
:10700000F883D4E90123002D18BF13462BB198F85B
:10701000102009FB02F2B85C98472468EAE700BF39
:10702000D8060020CC0600203014002070B5194B83
:107030001C7CBFF35B8F04F01F0301229A40164BA8
:10704000610903EB8103D04353E8001F01EA000507
:1070500043E80056002EF7D1BFF35B8F0A4213D0EE
:107060000E4B0F4D8BB10C236343EA18E85C51784B
:1070700007F08DF90020FFF7ABFF0C235C432A19C2
:1070800000232B51C2E9013370BD83F31188BFF394
:107090006F8FEFE730140020E00600208FE302003E
:1070A000CC0600202DE9F041354B07461D7C4FF002
:1070B0002003EFF3118883F31288BFF36F8F0C2442
:1070C000304B314E6C431A19195D00294CD007CA58
:1070D00006EB040C8CE8070000221A5588F311888F
:1070E000BFF36F8F0C236B43F218F05C002839D08C
:1070F0007B1C10D0D2F808C0244C254A4FF4004025
:107100000021ECFB004100232046FEF7F9FF01219E
:10711000381A03F0AFFB05F0FBFF0120FFF758FF23
:10712000BFF35B8F1B4B6A0903EB820305F01F0162
:1071300001228A4053E8000F104343E80001002970
:10714000F8D1BFF35B8F144B3BB10C2303FB05F06D
:107150003318305C597807F00EF9FFF767FF05F038
:10716000EBFF0120BDE8F0810146284600F016F84B
:107170000028B3D007C8344484E80700AEE700BF56
:1071800030140020C0060020CC0600203F420F0033
:1071900040420F00E006002077E302002DE9F04FA7
:1071A000384C85B04B1C0F4603A90CBF4FF0FF387D
:1071B0004FF0000800F06EF86368002B054612DB04
:1071C00007F0EEFBD4E900321C1A62F10006984287
:1071D0004FF00003934102DB013C46F10006012C15
:1071E00076F1000302DA3C46464609E0B8F1FF3F7B
:1071F00008BFB7F1FF3F03D0A74278EB0603F2DBED
:10720000214B039F1B6800936B1E1BB203EB4303D0
:10721000DFF8789007EB83074FF400484FF0000B3E
:1072200025B9AA46504605B0BDE8F08F7868184ADF
:10723000CC465946E0FB08C100236046FEF760FFDC
:107240000190B868124ACC465946E0FB08C10023B9
:107250006046FEF755FF009B002BBA4601DB8342D8
:107260000BD9B6F1FF3F08BFB4F1FF3FDAD0019B65
:107270001844844276F10003D4DA013DADB20C3FEC
:10728000CEE700BF000000205C0100203F420F005D
:1072900040420F0008B9024B0B600020704700BF4E
:1072A0002CF70200F0B40C4B0C4E5F6A0C4BB3424F
:1072B00003D36FF08500F0BC70475D68BD4209D311
:1072C0001C693CB195F802C00579AC4502D1234652
:1072D000F0BC18472433EAE7E4060020A0030020AE
:1072E0007C0300202DE9F047134CDFF85080DFF8D5
:1072F000509005460E461746444503D36FF085006F
:10730000BDE8F0876268D9F824309A4212D3A369A5
:1073100083B190782979884205D13A46314628468A
:10732000BDE8F04718475279012A03D13A46314661
:10733000284698472434DFE77C030020A003002080
:10734000E40600202DE9F0410B4CDFF830800546C3
:107350000E461746444502D36FF0850009E0636985
:107360000BB92434F6E73A463146284698470028B8
:10737000F7D1BDE8F08100BF7C030020A00300200E
:1073800010B5044607F038F810F1780F00D050B966
:10739000054A204606F0AFFED2F8C43023EA0003C7
:1073A000C2F8C430002010BDE406002002480822C4
:1073B000002106F0BEBF00BF9F07002070B50B4B39
:1073C0000B4CA34201D3002070BD196A1E7F00221E
:1073D0000439D5B2AE4201D82433F2E7013211F8B4
:1073E00032508542F5D10120EEE700BF7C0300203A
:1073F000A003002008B509480378C3F341130A33FA
:1074000050F823303BB100F1080200F11001984719
:10741000C043C00F08BD1846FCE700BFE4060020CB
:1074200004282DE9F14FDFF8989004460F4616D056
:1074300001282DD1DFF88C8098F8B93043B300F0E3
:107440000DFE214D4D4520D2D5F820B04FF0000A59
:107450002B7F5FFA8AF6B34204D82435F2E7FFF7B0
:10746000A5FFE7E70BEBC6060AF1010A307906F043
:10747000C3FF0246307906F03EFED8F8C430002A39
:1074800023EA0003C8F8C430E2DA002388F8B930F0
:107490000D4D4D4508D30B4B1B6A6BB13946204649
:1074A00001B0BDE8F04F1847EB681BB13A462146E2
:1074B000284698472435ECE701B0BDE8F08F00BFBF
:1074C000A0030020E40600207C03002073B5C4B2B2
:1074D00063060D468DF8074007D02046FFF76EFF84
:1074E00078B10D4B93F8BA0058B10B4E204655B108
:1074F00001F026FFF3691BB10DF107010820984741
:10750000012002B070BD01F043FFF369002BF7D0FA
:107510000DF107010920F2E7E406002073B5867833
:107520008DF80060037942791C4C43EA0223ADF8E0
:107530000230C378304603F003038DF8043006F0C0
:10754000DAFDD4F8C430184205460BD0304600F0BE
:1075500067FD3046FFF714FF07F009FC10B99620CD
:1075600005F0AAFE684601F0C7FE10F1780F03D0BF
:1075700010B1002002B070BD9DF8000001F044FF82
:1075800010F1780F01D00028F3D1D4F8C4300120D5
:107590002B4384F8B900C4F8C430EBE7E4060020BC
:1075A0002DE9F047A34EB36904460F461546FBB9D3
:1075B000237803F01F03012B00F09D80022B00F0C5
:1075C000048133BB94F900002A686178002834DA1A
:1075D000062912D008292BD0D9B901231370517074
:1075E00096F8C3305B0043F00103137002232AE1D5
:1075F00098470028DCD100200DE06288100A011FA6
:107600000129844605D9072803D8716AD2B20C78BB
:107610001CB96FF01500BDE8F0874E78664503D1C0
:107620009A4200F00B8101332144F0E70B780AE124
:1076300096F8BA301370012305E101390829E8D81A
:1076400001A353F821F000BFE17602001376020097
:10765000EF760200137602006D76020013760200C8
:10766000137602001376020079760200A07801F00A
:1076700031FE0028BFD0CCE76388756A63BBFFF793
:1076800095FE638886F8BA30F369002BB3D06A4957
:1076900003209847AFE76B78042B10D0052B11D04F
:1076A000022B04D16F796388BB4208BF01202B787D
:1076B0001D442B78002BEED10028AAD0DFE795F8E7
:1076C0000380F4E76388BB42F1D1B8F1000FEED13B
:1076D0002846FFF723FFEAE7FF270020B846E8E740
:1076E0006388012B95D1002386F8C33083E7638834
:1076F000012B8ED1F8E796F8BA30D5F800C0002BF0
:1077000087D0756AA38894F804E02A461078002888
:107710003FF47FAF5178022904D192F80480F045FC
:1077200000F293800244F1E78CF800208CF80120ED
:10773000396060E7154494E00B2A7FF46AAF0027B4
:107740004FF0FF08C146BA4606E06B78042B0FD015
:10775000052B21D02B781D442B78002BF5D1F36914
:1077600013B1514607209847002F7FF444AF50E7EC
:1077700095F80280A38895F803909845EAD163882C
:107780009945E7D1B8F1070F1CD806EB0803AA46C4
:1077900083F8BB900127DDE7A3884345DAD1A378BE
:1077A0004B450AD0AF78384600F03AFC3846FFF730
:1077B000E7FDB0FA80F77F09CCE72846FFF7AEFE79
:1077C0000746C7E7AA460027C4E794F90020637874
:1077D000002A18DA002B7FF41CAF24792D68630689
:1077E0000AD02046FFF7EAFD00283FF412AF96F8D2
:1077F000BA30002B3FF40DAF2946204601F0E8FDDA
:1078000000236B70F2E6012B08D0032B7FF401AF4D
:107810006388002B7FF4FDAE012103E0618800291D
:107820007FF4F7AEA088FFF751FE00287FF4E3AEA7
:10783000EFE600BFE40600209E0700200228296032
:107840007FF4F4AE4B883B60D5E694F90000627893
:107850000028BFF671AF002A3FF466AF0A2A7FF412
:10786000D8AE2A78002A3FF4D4AE697804297FF490
:1078700061AFA9788B427FF45DAF072B96BF9B1950
:10788000002393F8BB308CF80030D4E613B5164CC7
:10789000237DF3B9E268A168019201AB802006F074
:1078A00038FC019AA3681344A360E3689B1AE36061
:1078B0006BB962B12369E2889A4208DD94F8C82066
:1078C00093FBF2F102FB11330BB90123237502B0D4
:1078D00010BD00231A4619468020237502B0BDE86A
:1078E000104001F0BBBD00BFE406002030B585B0FC
:1078F000002302460D460193002858D1002935D1B6
:1079000008220B460DEB020106F08FFD002804DA79
:10791000802001F015FD05B030BD2A4C029A22608E
:10792000039A626004F13802A2609DF90820BDF854
:107930000E302575002AC4E903550ADB802B04D9D3
:10794000802001F0FDFC0020E3E713B1C4E903331C
:10795000E1E7FFF74FFD0028DAD0E28823699A4279
:10796000D4BFE260E360FFF791FFD4E7154CD4E9A0
:107970000215002D01AB04DC06F057FD0028CADA21
:10798000C6E72A4606F051FD0028D9DB019AA36814
:107990001344A360E3689B1AE360002BBBD104F19E
:1079A0003803A360FFF726FD0028DCD1B0E780286C
:1079B000B1D1044BDA68002AD5D11B7D002BD2D17E
:1079C000A9E700BFE4060020054B064A9A62064A72
:1079D000DA62064A1A63064A58629A6100207047C2
:1079E000E4060020A1750200A572020045730200A2
:1079F000E57202002DE9F341414D04466F6A4148AA
:107A00004FF0FF324FF0FF3304F0ECFE95F8B86012
:107A1000002E6ED13C482C62E86101F039FE01F085
:107A200027FC041E49DB00F03DFB041E45DB7B7890
:107A3000012B61D1FB79002B5ED0684685F8C830F8
:107A4000ADF802308DF804608DF8006001F054FC50
:107A5000041E32DB802768468DF8007001F04CFC74
:107A6000041E2ADB2949304601F0FEFD041E24DBFA
:107A70002649384601F0F8FD041E1EDB244CDFF8D1
:107A80009480444520D3002001F0BEFC041E14DB8A
:107A9000D5F8C430802043F00103C5F8C43001F0AC
:107AA000B3FC041E09DBD5F8C43043F48033C5F8B9
:107AB000C430012385F8B8300024124804F00CFFCC
:107AC000204602B0BDE8F081276A0026227FF3B28B
:107AD0009A4201D82434D4E707EBC30257F8331095
:107AE000107901F0C1FD01360028EFD04FF0FF34CE
:107AF000E3E76FF07704E0E76FF01504DDE700BF20
:107B0000E4060020B402002021740200ED78020097
:107B10007C030020A003002010B50A4B93F8B84066
:107B20004CB900F055F848B1FFF74EFF2046BDE8CC
:107B30001040FFF75FBF6FF0770010BD4FF0FF30D0
:107B4000FBE700BFE406002030B51F4B8BB005AA51
:107B500003F1100518685968144603C40833AB4292
:107B60002246F7D11B7823701022002101A806F0CD
:107B7000E0FB12220021154806F0DBFB102101A8D2
:107B800006F05FFD00281BDD0828B8BF0820093873
:107B900001AB0E491A18002012F8013F0AAC04EBA1
:107BA000131403F00F0328336B44013014F8144C02
:107BB00013F8143C0C7008284B7001F10201EBD152
:107BC00002480BB030BD00BF24FA02006C14002044
:107BD0002DE9F04F704C87B04FF0000B00264FF0AE
:107BE000011AB0463546B14623782BB96B4B0234A7
:107BF0009C42F3D1684832E06378052B1BD8DFE85C
:107C000003F09003C8901D3B402304A88DF810B0EA
:107C1000ADF812308DF814B006F0D6FB40B1082351
:107C200004A8ADF8123006F0CFFB08B1ADF812B0E1
:107C3000BDF81230E37123781C44D5E7E378002BBC
:107C4000F9D1A37873B108F101085FFA88F8F2E777
:107C50006A68944209D024359D42F9D3002007B0C8
:107C6000BDE8F08F4E4D4F4BF6E7AB68002BEAD0E6
:107C7000414620469847E6E7002DEFD000222B7FB3
:107C80009A42EBD2296AA07801EBC2010B799842A3
:107C900001D00132F3E70127E07800F003008DF80E
:107CA0001400207994F805C040EA0C20ADF81200C9
:107CB00094F902000028FBB228DA07F110004FF017
:107CC000010C0CFA00F010EA0A0F26D143F08000F4
:107CD0008DF8100004A8CDE90213019206F074FBA0
:107CE000DDE90121039BC0B99DF81020A27012F0BC
:107CF000800F18BF10330A7118BFDBB24FF00102BA
:107D000014BF9A40BA404AEA020A94E70120B840F8
:107D100010EA0A0F01D11846DAE70137102FBBD15C
:107D2000B7E7032E1DD1FFF70FFF074668B106F036
:107D3000EEFA019048B11C4806F0E9FA019A824235
:107D400003D13946A01C06F0E9FA23786FF002014E
:107D5000E218091B04EB5303D14213D50136F6B2E6
:107D600069E7002EF1D1B9F1000F3FF477AFA4EB32
:107D7000090389F80230C3F3072389F8033089F82F
:107D80000480EBE702F801BC13F8010902F8020DC8
:107D9000E2E7A1464FE700BFD80200207B030020A6
:107DA0007C030020A003002024FA020010B5094B38
:107DB00000211A461C78844204D15C6814B102EB9D
:107DC000811010BD0131042903F14003F2D10020DC
:107DD000F7E700BFB00700202DE9F34150F8283C39
:107DE00010F82C6C1033044610D1036950F8202C85
:107DF00099073CD502BB13F0040304D11A46194677
:107E0000304606F086F9002344F8283C54F8283C14
:107E100010330ED054F8185C5DB154F81C7C54F843
:107E2000148C06F0A4FF00284CD02C48214607F003
:107E300092F802B0BDE8F08150F8241C01AB304646
:107E400006F067F910B16FF01503DDE7019A54F8F9
:107E5000243C134444F8243C54F8203C9B1A44F836
:107E6000203C54F81C3C134444F81C3CCEE750F82A
:107E7000241C01AB304601F06DFB0028E3D1019DCD
:107E800054F8243C2B4444F8243C54F8203C5B1B1D
:107E900044F8203C54F81C3C2B4444F81C3C002D76
:107EA000B1D0304601F0FAFBB5FBF0F303FB1055FF
:107EB000002DA8D154F8203C002BA4D0304601F06E
:107EC00091FBA3E744F8180CA4F1100004F074FD32
:107ED000424639463046A847ABE700BFA003002022
:107EE0004B1E012B73B506460D460FD8FFF75EFFFC
:107EF000044668B9012D09D101AB01220DF103013E
:107F0000304601F027FB019B002BF5D102B070BD7C
:107F100006F02DFF04F12C0108B1012D05D1084612
:107F200002B0BDE87040FFF757BF034802B0BDE89C
:107F3000704007F010B800BFA00300202DE9F74FF4
:107F4000064601911546984606F02BF9044600288E
:107F50005CD14FF02003EFF3118A83F31288BFF353
:107F60006F8FDFF8B0B000220023584604F048FDC0
:107F700070B9DFF8A490A70109EB8414636813F1CA
:107F8000100F14D10193584604F016FD019B06E032
:107F90000134042C0BF1400BE5D16FF00B038AF395
:107FA0001188BFF36F8F184603B0BDE8F08F019BB7
:107FB0002061C4E902350C9B63610D9BA3613046CF
:107FC0006FF00F0309F80760C4F83C80636001F0AC
:107FD00065FB58B1304601F061FBB5FBF0F303FBE4
:107FE00010551DB1E36B43F00403E36318F0020F77
:107FF00007D007F12C010948494406F0ACFF0023E3
:10800000CDE7304601F0EEFA0346C8E76FF00F0304
:10801000C9E700BFCC070020B0070020A003002064
:1080200010B54FF02003EFF3118483F31288BFF3F0
:108030006F8FFFF7BBFE50B14368103307D16FF06D
:108040008B03436000F12C01034806F084FF84F3A6
:108050001188BFF36F8F10BDA003002070B50F4CC7
:1080600004254FF02003EFF3118683F31288BFF34A
:108070006F8F6368103307D16FF08B03084863601C
:1080800004F12C0106F067FF86F31188BFF36F8FB0
:10809000013D04F14004E4D170BD00BFB0070020F1
:1080A000A003002070B50A4C0A4E00253146204638
:1080B00006F034FF0122A4F110001146013506F04C
:1080C000F0FE042D04F14004F0D1002070BD00BF8B
:1080D000DC070020D97D020070B504460E46017908
:1080E0001248154606F039F8E8B194F90020637893
:1080F000002A11DB202B04D0222B09D06FF0850041
:1081000005E029680722103806F008F9002070BD44
:10811000638800F8093CF9E7212BEFD110380723D9
:1081200028603360F2E76FF01200F0E7B00800203B
:1081300008B50146034806F01EF810B1012300F807
:10814000073C08BDB00800200169012381F84B30CD
:108150000B6833B191F849301BB10248083106F081
:10816000FABE7047A00300200169012381F84A305C
:108170000B6833B191F848301BB10248083106F062
:10818000EABE7047A00300200D4A03460021A0F874
:1081900048101068C3F8940090889279A3F898006A
:1081A00083F89A2083F89C1083F89B10A3F89E1004
:1081B00083F8A010402203F14C0006F0BAB800BFCB
:1081C000C0F6020038B5056995F89E0088B195F8AB
:1081D0009F307BB985F84830D5F8900005F016FF40
:1081E000002204460023044805F1180104F05EFD56
:1081F000204638BD0020FCE7A003002013B5046929
:108200008DF8071094F89E30A3B194F89F308BB985
:108210000DF10701D4F8900084F84830012205F0F0
:10822000F5FE014640B10D482122002304F118015A
:1082300004F03CFD02B010BDD4F89000012205F01E
:1082400039FF0028F6D0D4F8900001220DF1070183
:1082500005F0DCFE0028E6D1ECE700BFA00300201B
:10826000F0B5D0F88C305B681B6A1F7D85B0054681
:10827000384605F096FF0646E0B9A86F4FF48062D5
:1082800003A905F0E2FE0446A0B18306A5F1180398
:1082900008BF00F1FF3485F830600193064B039965
:1082A0000093224602233846FFF748FEA86F214676
:1082B00005F0EBFE05B0F0BDBD82020010B5012354
:1082C00082F84830136814463BB192F84A3023B123
:1082D0000A4802F1080106F03EFED4F890309A6890
:1082E0001B699A4208D004F118010448BDE8104007
:1082F0000022002304F0DABC10BD00BFA003002060
:1083000010B504690023C4F8A8300C4BC4F8A400CD
:10831000596804F1A80269B9C3E9002204F1080010
:10832000074906F0FBFD04F11800064906F024FE9B
:10833000002010BD0A605A60F0E700BFB0080020BE
:10834000CDE102006182020073B5144602F14C06D1
:108350000A1E05461FDDD4F88C00314605F056FE96
:10836000012384F8493023683BB194F84B3023B1A2
:108370000E4804F1080106F0EEFDD4F88C104B68AD
:108380004A699A1ACB699B1A3F2B04D8012384F8B7
:10839000A03002B070BD064B00930194012340222F
:1083A00031462846FFF7CAFDF3E700BFA0030020CF
:1083B0004983020038B50D4601461E4805F0C1FE4E
:1083C000044680B30246691E52F8A4395B68052949
:1083D00029D8DFE801F020280320252914F8061CFD
:1083E00031B91B6A187BFFF7AFFF012304F8063C85
:1083F00014F85C3CBBB9012304F85C3C54F8A43C81
:108400008BB114F85A3C73B1A4F19C010A48BDE841
:10841000384006F0A0BDBDE838401046FFF7B4BEB6
:10842000012304F8053C38BD14F8053C002BFAD0B4
:108430000023F6E7B0080020A003002037B5094D5F
:108440000949002400944FF0FF334FF4806228461E
:1084500004F0F4FB0549284606F08FFC204603B0E3
:1084600030BD00BFA0030020B01400206BFA020052
:10847000014910220A60704710ED00E072B64040DA
:1084800080F31188BFF36F8FBFF34F8F30BF62B699
:10849000BFF36F8F704700BF72B6494081F31188F8
:1084A000BFF34F8F20BF80F3118862B6704700BFC3
:1084B00040B2002807DB044A4109012300F01F00F5
:1084C000834042F82130704700E100E040B20028CC
:1084D0000CDB4309064900F01F00203301228240D3
:1084E00041F82320BFF34F8FBFF36F8F704700BF5A
:1084F00000E100E0054B420900F01F0053F8222084
:10850000012303FA00F01040704700BF00E100E0D3
:1085100040B20028A8BF00F1604001F10101B8BFDE
:10852000064B4FEA4111ACBF00F5614000F00F006F
:10853000C9B2B4BF195480F80013704714ED00E0BD
:1085400030BFFFF7FDBF00BF0F4A08B50F4B22F049
:108550007F029A60BFF34F8FBFF36F8FD3F88820ED
:1085600022F47002C3F88820EFF3148323F004038D
:1085700083F31488BFF36F8F03F062FF04F02EFFC4
:1085800000F0EAF903F0AAFF0060020000ED00E04D
:10859000094A0A49936809689967094958674B6805
:1085A00043F080534B60002383F31188BFF36F8F38
:1085B0009368986F704700BF301400200CF90200D8
:1085C00000ED00E00F498A684FF030001044EFF3EF
:1085D000098C80E8F01F202080F31288BFF36F8F92
:1085E000094F4FF000668A698A603E60506F002331
:1085F000536780F3118802F1300090E8F01F8CF38C
:10860000098870473014002004ED00E01EF0040FCC
:108610000CBFEFF30880EFF30980816911F8021CA9
:108620000229FFD001B505F063FE01BD42F8203CF0
:10863000009B42F81C3C0A49019B42F8183C029BF3
:1086400042F8143C21F001014FF0807342F8043CE1
:1086500042F8081C0023203A02654367704700BFB8
:10866000E3D80200074B9860104681F30988002187
:1086700063B681F31188BFF36F8F0022002305F0EA
:1086800030F900BF3014002001B572B60B4A5069B2
:1086900000281EBF0021516106F074FB62B6EFF3A3
:1086A0000580A0F110004FEAC0000549014409C946
:1086B0009847BDE8014003490847000030140020F6
:1086C000ACF40200C9860200044B9968986988429C
:1086D00003D003494FF080520A60704730140020E5
:1086E00004ED00E0134B9A6A12F0007F9A6A14BFFF
:1086F0001E201D2012F0807F9A6A18BF1F2012F4DE
:10870000002F9A6A18BF212012F4802F9A6A18BF8E
:10871000222012F4003F9A6A18BF232012F4803FEF
:108720009A6A6FEA02426FEA12429A6218BF2420E4
:10873000704700BF00ED00E010B5194B0246986A83
:108740009C6A10F4805F14BF1720162014F4006F89
:108750009C6A18BF1820A40509D5986B986A000474
:1087600004D51AB19A6A22F400429A6219200C4B7D
:108770009A6A12F4806F9A6A18BF1A20D2050CD434
:108780009B6A13F4005F18BF1C20054A936A43F4E8
:108790007F43936200230B7010BD1B20F5E700BFE1
:1087A00000ED00E010B51C4B0246986A9C6A10F080
:1087B000100F14BF1120102014F0080F9C6A18BF6E
:1087C0001220A40709D5586B986A000604D51AB17F
:1087D0009A6A22F080029A6213200F4B9A6A12F072
:1087E000010F9A6A18BF142012F0200F9A6A18BF5E
:1087F0001520D40658BF9B6A074B9A6A920642BF5F
:108800005A6A22F400525A629A6A42F0FF029A624D
:1088100000230B7010BD00BF00ED00E070B5444BAD
:108820005B688AB00646C3F30803002585F3118808
:10883000BFF36F8F02F07F40B0F17F4F11D102F094
:108840000C0008280DD010074CBF0E460125002251
:10885000033B8DF80720032B05D8DFE803F01E5CEF
:1088600060592E46F3E700249DF807309BB920227B
:10887000314602A805F052FD099B002D53D0C3F3E9
:10888000080222B96FEA53236FEA4323099302A92E
:10889000204605F02BFD0AB070BD254BDA6A910722
:1088A000E1D4DA6A002ADEDBDA6A5200DBD55A69E3
:1088B000B16942F480725A61BFF34F8FBFF36F8F7B
:1088C0005A6931F8021C22F480725A61BFF34F8F4B
:1088D000BFF36F8F4DF60272914209D09A6AD2B2FD
:1088E00042B10DF107010120FFF75CFF0446BBE731
:1088F0003468B9E79A6A12F47F4F05D00DF1070189
:108900000120FFF719FFF1E79B6AB3F5803FAAD377
:10891000FFF7E8FEEAE70DF107010020E4E70DF1BB
:1089200007010020EDE723F4FF7323F00103ADE717
:1089300000ED00E0024A536943F0100353617047B1
:1089400000ED00E0EFF30880EFF3098101B5724616
:10895000FFF764FF01BD00BF044800232021C218B7
:108960000133302B82F80013F9D1704700E100E0A9
:10897000FEF72CFB202080F3118808484FF400619B
:10898000401880F30988EFF314800221084380F334
:108990001488BFF36F8FFFF7D7FD0000B01C0020D5
:1089A000084B9B6883420BD1EFF3058343B1064B21
:1089B0005A6842F080525A605A6A22F400425A625F
:1089C00004F09ABC3014002000ED00E0024B034A92
:1089D0000348012100F060B80000042000000020DE
:1089E00078F70200F0B5204E00258D4239DA446850
:1089F00074B353B104F1FF3C14EA0C0F2FD11F2CB8
:108A00002DD907681CEA070F29D1202C0768D0F858
:108A100008C05FFA82FE1ED9B4F1004F1DD8013C98
:108A2000B4FA84F4C4F11F046400BEF1070F4CEAE9
:108A3000040C14D827F01F04144344F01004C6F8A3
:108A40009820C6F89C404CF00104C6F8A0400132C2
:108A500001350C30C9E70824E7E73E24E5E76FF06D
:108A600015021046F0BD00BF00ED00E0044B0522EA
:108A7000C3F89420BFF34F8FBFF36F8F704700BFD1
:108A800000ED00E0BFF35F8F024B0022C3F894209B
:108A9000704700BF00ED00E010B5034C01232278C1
:108AA000FFF7A0FF207010BD7E1400201449086855
:108AB000082810B521D8FFF7E5FF124C49680022BD
:108AC000904201F10C0105D10F4B1870FFF7CEFF5A
:108AD000002010BDC4F8982051F80C3C23F01F036F
:108AE000134343F01003C4F89C3051F8043C43F0A6
:108AF0000103C4F8A0300132E2E74FF0FF30E8E7AD
:108B000084F7020000ED00E07E140020014B1860A5
:108B1000704700BFB80100200CB410B586B009B989
:108B20000DF10B000024CDE9040109AB089A009473
:108B300004A905480393FDF797FE049B1C7006B03B
:108B4000BDE8104002B070474BE302004FF0200335
:108B5000EFF3118283F31288BFF36F8F064901236D
:108B6000C1F840354FF08041C1F8783582F3118863
:108B7000BFF36F8F0020704700E0014020B1034B2E
:108B8000800143F001031847704700BFD0F6020090
:108B9000020600F07F0312D5082B05D1010700F073
:108BA0000F0306D50E48704710F0780F12D100F071
:108BB0000F034C2000EB43100A4B18447047082B5E
:108BC00005D1020700F00F0306D50748704710F0E3
:108BD000780FF6D000207047044800EB4310704730
:108BE000040A0020B8080020240B0020240A0020DA
:108BF0000149024806F0AFB9E00800204004002017
:108C00000146014806F042B9C8020020024800228D
:108C1000002303F09DBE00BFC802002010B5054C24
:108C2000FFF7F4FF20B1011D204606F077F8F7E7C3
:108C300010BD00BF8402002007B500230E480022AB
:108C400001A903F0CDFC90B1FFF7E8FF0A4800222C
:108C5000002301A903F0C4FC38B901980423406043
:108C60000374FFF7CDFFFFF7C3FF002001E0019879
:108C7000406003B05DF804FB84020020022810B5B8
:108C800011D8094B1C5CFFF7D7FF60B100220274BA
:108C90000472FFF7B5FF054B93F824301BB1BDE814
:108CA0001040FFF7A5BF10BD96FA0200B8080020DB
:108CB000F8B5877806463846FFF76AFF3B06F57831
:108CC000044612D5002D43D1FFF7B6FF0346002816
:108CD0003ED00122A5770274032202739C60FFF745
:108CE0008FFFBDE8F840FFF783BF4DB1012D2FD1B5
:108CF000FFF7A2FF034658B3657705740573EDE7E8
:108D0000FFF79AFF20B3B278124B12F0800F02F0F7
:108D1000080111D041B1D3F8A836E36001230374F0
:108D2000022303738460DAE702F00F02142101FBCF
:108D30000233D3F80836F0E711B1D3F8A837ECE7DF
:108D400002F00F02142101FB0233D3F80837E4E7E5
:108D5000F8BD00BF0070024013B5124802F0B2FE29
:108D6000114B98421AD1114802F020FB0024104800
:108D700002F062FB0F49104800944FF0FF334FF4AC
:108D8000806203F05BFF0D490B4805F0F6FF0C48CD
:108D90000C4906F0C3F8204602B010BD6FF0040085
:108DA000FAE700BF098E02000000AD0B99FA02003D
:108DB000A4F70200B0180020400400208BFA020043
:108DC000E00800208D8F020010B50E49BFF35B8FC5
:108DD000002351E8002F012A03D141E80030002888
:108DE000F7D1BFF35B8F0CD151F8044C14392046F6
:108DF00005F041F8783004D12046BDE8104005F078
:108E000015B810BDD8080020F0B5064689B0142268
:108E1000002103A805F08DFA3378013B052B21D8FA
:108E2000DFE803F07A0314146A1603238DF8143074
:108E30000024FFF701FF0346A0B1047400F108020B
:108E4000DDE9050182E8030018461DE00423EDE793
:108E5000B7783846FFF79CFE837A044623B1013B7E
:108E6000022B43D909B0F0BD3B06F57813D5002D90
:108E7000F8D1FFF7E1FE03460028F3D00122A577E1
:108E80000274032202739C60FFF7BAFE09B0BDE8CA
:108E9000F040FFF7ADBE55B1012DE3D1FFF7CCFE99
:108EA00003460028DED0657705740573EBE7FFF70E
:108EB000C3FE07460028D5D00123037402230373A1
:108EC000846004F10C01B07805F0ADFE134AE1684E
:108ED000B2F88C328B4206D95B1AA2F88C3203F0BE
:108EE0002DF83846D0E7A2F88C52FAE7304609B0A0
:108EF000BDE8F040FFF7DCBE01A802F0F9FF9DF8E5
:108F00000530052B04D19DF8043013F0600FA9D073
:108F1000034B059301248CE702248AE7B80800205C
:108F2000240A002038B5002464F07F00C0B2FFF7A7
:108F30002FFE013405F031FA082CF5D10E4D002436
:108F4000E0B2FFF725FE036903B90561013405F0BE
:108F500024FA082C05F14005F2D1084805F01DFA65
:108F6000074BD3F87C2212B9064AC3F87C22064884
:108F700005F013FA002038BD480F0020040A002035
:108F8000B8080020480B0020240B00202DE9F043F6
:108F9000A74CDFF8A08285B00746FFF737FE10B96F
:108FA00005B0BDE8F08394F82530027C00F1040997
:108FB0003BB9002A00F088809E48494605F0AEFE85
:108FC000EBE7042A44D8DFE812F07F000500020135
:108FD00018014101037B8568032B39D8DFE803F0D2
:108FE000023F5C616E6908220021304605F0A1F95C
:108FF000914B9248D3F880243270D3F88424727055
:10900000D3F88824D3F88C1442EA01227280D3F872
:109010009024D3F8941442EA0122B280D3F8982421
:10902000D3F89C3442EA03230822F3803146EA60F5
:1090300005F074F92B68687A0021984796F900309A
:10904000002B08DBF38833B1A4F88C3202F076FFF2
:1090500049464046B2E70023A4F88C32F8E76B7F1C
:10906000002BF5D02B7F002BF2D000266E774FF02F
:10907000FF3273482E774FF0FF3305F0A1F96B698B
:1090800001936B68CDE9023601A9687A02F05CFDB4
:109090006B4805F097F9DBE72B680121687A984760
:1090A000D6E7AB7A6BB9EB7F5BB965484FF0FF321F
:1090B0004FF0FF3305F084F902F070FF604805F0CF
:1090C00081F92B680221E9E7027A042AC0D8DFE897
:1090D00002F059032367730002F0BEFC0546002826
:1090E000B6D102F0F5FBBFF35B8F5649012351E87F
:1090F000002F002A03D141E800300028F7D1BFF348
:109100005B8FA5D141F8085C41F8105CE0696361B0
:10911000143904F033FE9BE7002565F07F00C0B2F0
:10912000FFF736FD037A13B1407A03F0E7F8013513
:10913000082DF2D194F854311BB194F8550103F085
:10914000DDF80025E8B2FFF723FD037A13B1407A7A
:1091500003F0D4F80135082DF4D194F874321BB122
:1091600094F8750203F0CAF8002002F057FC0123BE
:1091700084F825302368002B3FF46AAF00210220D9
:10918000984765E7002584F8255003F073F8FFF74A
:109190001BFE2368002B3FF45BAF29460420EFE75A
:1091A000002B3FF455AF02F061FC2368002B3FF425
:1091B0004FAF00210520E3E72268002A3FF448AFC3
:1091C000002B3FF445AF00210620904740E707F110
:1091D00010054FF0FF334FF0FF32284605F0F0F84E
:1091E000FFF7A0FE284605F0EDF857F8283C002BC5
:1091F0003FF42EAF00210120C2E794F874327BB116
:10920000012584F8895284F88852FFF715FD38B19A
:109210000D4A057405738260FFF7F2FCFFF7E8FC66
:1092200057F8283C002B3FF413AF00210A20A7E792
:10923000B80800208402002000700240BC08002012
:10924000F0080020D8080020240B002005F062FC64
:1092500003F010F802F032FBFFF7E0FCFFF762FECC
:1092600005F051FC014802F02DFCF1E6098E0200E8
:1092700038B5164D95F824402CBB05F1380005F0A3
:1092800090FD204600F0E6FC22460121E8612720FF
:10929000FFF73EF905F037FCFFF744FE044610B92E
:1092A000012385F824300A4B1B680BB1FFF7A0FCA3
:1092B0004FF08043D3F83834DB0702D50020FFF7A6
:1092C000DDFC204638BD0024FBE700BFB8080020C5
:1092D000C8020020074B93F824203AB193F82530B8
:1092E000002B14BF00206FF0120070476FF01200C7
:1092F000704700BFB808002038B5104B93F82430F1
:109300000446C3B105782846FFF742FC10B96FF058
:10931000150038BD457223798372638843602078D5
:10932000618810F0080F02D14B1E0B42EFD105F0FF
:1093300075FC0020EDE76FF01200EAE7B8080020A6
:1093400038B5124B93F824200546CAB193F825305E
:10935000B3B1FFF71DFC0446A8B1837A012B12D0EC
:1093600007D9023B012B07D96369A3610020E060A4
:1093700038BD02F01BFEF7E7284602F08BFDF3E74D
:109380006FF01200F4E76FF01500F1E7B808002065
:1093900038B50E4B93F82420054682B193F825305A
:1093A0006BB1FFF7F5FB68B115F008040AD1284648
:1093B00002F092FD284602F0F5FF204638BD6FF01E
:1093C0001200FBE76FF01500F8E700BFB8080020B7
:1093D00038B50C4B93F8242005460C4662B193F83F
:1093E00025304BB1FFF7D4FB48B144B1284602F019
:1093F00059FD2070002038BD6FF01200FBE76FF0C0
:109400001500F8E7B808002070B5134E96F8243020
:109410000446C3B1FFF7BCFB0546B8B1230705D42A
:10942000204602F059FD204602F0BCFF2B7A83B99A
:1094300001232B7296F825300BB9002070BD204611
:1094400002F05CFFF9E76FF01200F7E76FF015002C
:10945000F4E76FF07700F1E7B80800202DE9F0435A
:10946000DFF8E4801E4698F8243085B00746894628
:109470001546002B61D098F82530002B5DD00306EF
:109480005ED5FFF785FB0446002859D0037A002BF0
:1094900056D04FF0FF334FF0FF3208F1380004F0A0
:1094A0008FFFA37F4BB108F1380004F08BFF6FF002
:1094B0000A04204605B0BDE8F083A37AC5B13BB3EA
:1094C0000123A3774FF0000801A93846CDE90195A3
:1094D000CDF80C8002F038FB1C4B984229D084F860
:1094E0001E801EBB6FF00404194804F06BFFE0E718
:1094F000E27F02B1E577002BE2D102F05FFDB842D6
:10950000DED002F04BFD124804F05CFF0024D0E7EF
:10951000B8F80A30AB42F0D96268B5FBF2F302FB4F
:109520001353002BE9D10123E377E6E7C6F8008067
:10953000D8E706B135600024D6E76FF01204B8E72B
:109540006FF01504B5E700BFB80800200000AD0BB0
:10955000F00800202DE9F0411D46204B174693F8F6
:1095600024200E46002A33D093F8253083B3030617
:1095700031D401B97FBBFFF70BFB044658B3037A24
:109580004BB34FF0FF3316484FF0FF3204F018FF93
:10959000E3689F42B84628BF984646B93FB905B12F
:1095A0002B600F4804F00EFF0020BDE8F081A16998
:1095B0004246304604F0B2FEA3694344A361E36827
:1095C000A3EB0803E360002DEBD0C5F80080E8E7CB
:1095D0006FF01200E9E76FF01500E6E7B808002029
:1095E000F008002070B51E4D95F82420034682B384
:1095F00095F825206AB31B062ED4FFF7C9FA044656
:1096000050B3037A43B34FF0FF334FF0FF3205F10D
:10961000380004F0D5FEE368B3B901266369267704
:10962000A361637F83B1FFF707FB30B905F1380011
:1096300004F0C8FE6FF00B0070BD06748460067302
:10964000FFF7DEFAFFF7D4FA064804F0BBFE00206D
:10965000F2E76FF01200EFE76FF01500ECE700BFE4
:10966000B8080020F008002010B5084B93F824300B
:109670000C462BB1FFF78CFA28B10460002010BD16
:109680006FF01200FBE76FF01500F8E7B808002054
:10969000014B1860704700BFB808002008B5074BA1
:1096A00093F8243023B1FFF773FA20B1406808BD66
:1096B0006FF01200FBE76FF01500F8E7B808002024
:1096C00013280ED8084A12F8103053B102EB4002AA
:1096D000527832B108684343002093FBF2F30B60E9
:1096E00070476FF015007047A3FA0200054B012286
:1096F000C3F8002590F8761009B1DA6070471A6057
:109700005A60704700700040087970B500F01F047F
:10971000072C20D80B780B2B1DD8DFE803F00707A8
:1097200007071C061C1C1F211C2304234A78032A3C
:109730001AD0042A0FD100254A8844F20A06B24200
:1097400046D013D844F20306B2423DD044F2050697
:10975000B2423BD0E2B36FF0150034E00523E5E7F9
:109760000623E3E70723E1E70125E5E744F21406D2
:10977000B2422FD044F22806B2422DD044F20F0656
:10978000B242E8D10322C0F340101B0243EA005367
:1097900043EA053343EA0243220102F1804202F523
:1097A000E0420020C2F81835230103F1804303F59D
:1097B000E0438A79C3F81425C3F81005074B4A79AA
:1097C000234483F8902070BD0022DCE70122DAE711
:1097D0000222D8E70422D6E70522D4E7B800002009
:1097E000F7B50C464FF0FF3355484FF0FF3203F00A
:1097F00007F96668731EFE2B3CD800235148524F70
:109800001A4626FA03F111F0010126D017F803C019
:10981000BCF1000F2ED000EB031E657CDEF818159E
:10982000003D18BF012521F0807141EA0561CEF8A5
:10983000181503F151010901013240F801C0D2B2FB
:109840000133082BDDD1237C083B062B12D8DFE83F
:1098500003F009111D1119111B0003F151052D0110
:109860004151EDE700233749012AC1F8F035637C07
:109870000ED97BB16FF01504314803F09DF82046F6
:1098800003B0F0BD0223EEE70323ECE70123EAE790
:10989000082BEFD8C1F8F4352168530011B189893C
:1098A00001FB0333E168994247D3264BA168C3F813
:1098B0002C162746C3F830260FCF244D05F1640639
:1098C0000FC63B68336000262E6623682F4683B39D
:1098D0000FCB05F1780484E80F006C66A5F888606A
:1098E00038B3BFF35B8F57E8003F47E80062002AB8
:1098F000F9D1BFF35B8F1649AC6F164A4FF40040A5
:109900000F463146E4FB007100233846FCF7F8FBB4
:109910000022CDE90001002305F1080003F02AFF31
:109920000D484FF0FF324FF0FF3303F069F82C6E13
:10993000A2E70648FFF7DAFEF2E76FF00B049BE7B9
:10994000F80000200070004048010020B80000200E
:109950003F420F0040420F000801002010B50E4B9F
:109960000024C3F80441D3F80421C3F81041D3F80C
:1099700010211222C3F804230720FEF799FD224686
:1099800001210720FEF7C4FD0448836C13B9403061
:1099900003F012F8002010BD00700040B800002055
:1099A00038B52E4BD3F80421002A49D00022C3F841
:1099B0000421D3F804112A4C01219960C3F8002531
:1099C000636E2546BBB3E36FB4F8882033B104F16E
:1099D00064019847012814D0022827D0B4F88830B1
:1099E000B4F884209A4221D90133A4F888301B4B63
:1099F000D3F82C26D3F8341689B202EB4102C3F80F
:109A00002C26A36F23B9BDE838401548FFF76EBE7A
:109A1000BFF35B8F55E8003F5A1E45E8002100293F
:109A2000F8D1BFF35B8F012BEDDC38BDA36F13B111
:109A30000C4805F015FC0C48BDE8384002F0BCBFEE
:109A4000D3F810110029F0D0C3F81021D3F8102159
:109A500001229A601A605A60E7E700BF0070004078
:109A6000B8000020C000002008010020084B70B59D
:109A7000C31A0D4607499B10044659430648402225
:109A800004F015FD2B4601462046BDE870401847FE
:109A90005C110020B76DDBB634F4020073B50C4CDA
:109AA0000C4A4023041B00930D460B460A49A410A0
:109AB00061430646094804F027FD011E05DA3046D9
:109AC0002B4602B0BDE87040184702B070BD00BF21
:109AD0005C11002075E50200B76DDBB634F40200BE
:109AE000002270B5012104461046FEF711FD0F4813
:109AF00001F0A2F80E4B984215D101F0ADF826699D
:109B00000C49304604F027F900280BDB01253564A9
:109B10002469084904F11C0004F01DF9002801DB48
:109B2000E564002070BD6FF00400FBE76D9B020050
:109B30000000AD0BB4F7020070B501460C230948D4
:109B40004B43C418D4E90E56403300221844A26394
:109B500004F09AFC2DB132462B460348BDE8704014
:109B6000184770BD5C11002034F4020010B10128C8
:109B700004D07047034B1B6C5B0701D1FFF7DCBFC0
:109B8000704700BF5C11002008B54FF02003EFF3D1
:109B9000118183F31288BFF36F8F124A136843F069
:109BA00002001060DA0708D481F31188BFF36F8FC9
:109BB0000120BDE8084004F004BF4FF08043D3F813
:109BC0000C24D3F80C34DB07EED5074804F05CFC1A
:109BD00081F31188BFF36F8F0020BDE80840FFF7C5
:109BE000ABBF00BFAC1100209C1100201FB50022AC
:109BF0000123CDE90223094ACDF800D06B46CDF808
:109C000004D004F0B0FC002805DB4FF480420023B0
:109C1000684602F0F5FE05B05DF804FB93E502002E
:109C200010B54FF02003EFF3118483F31288BFF3D4
:109C30006F8F074A136823F00201DB07116002D41B
:109C4000012004F0FAFE84F31188BFF36F8F10BD7A
:109C5000AC110020024AC3B21C2003FB0020704755
:109C60005C1100202DE9F0413849BFF35B8F0746B6
:109C7000012251E8003F41E800200028F9D1BFF35C
:109C80005B8F33B9324933484B60CB608A6004F054
:109C900075F87B1E012B2BD8012F07D14FF0804385
:109CA000D3F81C3403F00303012B21D005F05FF837
:109CB0000546F8B9284B1B78E3B14FF080430222E8
:109CC000C3F808230646DFF894804FF08044D4F8A8
:109CD0001824D4F81834D20316D503F00303012B4B
:109CE00001D0012F10D15DB386F31188BFF36F8FC0
:109CF000BDE8F0814FF02003EFF3118683F3128863
:109D0000BFF36F8F0125DEE7ADB13046FEF7C4FB30
:109D1000D4F81835002BDAD1D4F80421002AD6D093
:109D2000C4F80431D4F804310123C4F81835C8F854
:109D30008031A360CBE70021212003F0A3FAE7E7FD
:109D40004FF080430222C3F80423D1E758110020CA
:109D50004811002078110020A714002000E100E045
:109D600008B5074804F08EFF38B10648FEF7CEFE6E
:109D70000448FCF757FC002008BD6FF01200FBE719
:109D800070F40200899D02000A2838B5074D044688
:109D900004D1AB680D215B6828469847AB6803483F
:109DA0005B68E1B29847204638BD00BF70F40200FE
:109DB00030B54068057B01F01F04B2F5001F85B087
:109DC00044EA451405D1204601F0C6F9002005B04B
:109DD00030BD0025B2F5800FCDE9025514D1B3F1A5
:109DE000007F0CBF042305238DF80830002319469B
:109DF00002AA204600F0F8FF234B98423DD10121F2
:109E0000204601F063F9E1E7B3F1C06F27D0B3F169
:109E1000007F14BF012302238DF80830836823FAE2
:109E200001F111F00101E1D1B2F1A07FDED104F026
:109E30001F03620903F5E07313D0012A20D1134AEE
:109E400052F82330DB07D1D40DF10705294620460F
:109E500001F0ECF80E4B984206D00395C6E70323B9
:109E6000DAE74FF0A042EBE7284601F029F9064B6C
:109E70009842F2D06FF00B00A9E76FF01500A6E74B
:109E800051F82330FFDE00BF0000AD0B000300508F
:109E90000400AD0B10B501F003F9044668B901F0F8
:109EA000D7F8084B98420AD10748214601F0B8F884
:109EB000224605210620FEF72BFB002010BD6FF087
:109EC0000400FBE70000AD0BCD9E0200420970B517
:109ED000034602D0012A17D070BD0D4E3269516879
:109EE0000029F9D003F01F0301250C689D400029CB
:109EF000F2D08A682A4002D04B68304698472CB18D
:109F0000236821461C46F2E7024EE7E72346F8E7BE
:109F10005CF4020048F402002DE9FF4147683B7BF6
:109F200001F01F0545EA43150E4628460DF10301D1
:109F3000144601F07BF814F4403F80460BD12846CC
:109F400001F02CF93D4B984503D19DF8030001F039
:109F5000B1F800200CE00023194602AA2846CDE9FA
:109F6000023300F041FF354B984204D06FF01500EA
:109F700004B0BDE8F081804503D19DF8030001F0F5
:109F800099F8A3034BD540F206332340B3F5837F02
:109F900019D00CD8062B17D004D8ABB1022BE5D1C1
:109FA000042311E0B3F5807FE0D101230CE040F2FF
:109FB0000222934227D0B3F5407F26D0B3F5007F2D
:109FC000D4D1022300E007238DF8043084F48033D9
:109FD000C3F30043E0068DF8053054BFC4F34013CB
:109FE000032321038DF8063011D57A680123B3408D
:109FF000C2F80835002201A9284600F0A1FF0F4B46
:10A000009842A6D0B2E70523DEE70323DCE762032C
:10A0100041BF01237A68B340C2F80C35EAE7E30692
:10A020004FF0000354BFC4F3401403241A4601A99F
:10A0300028468DF8044000F0D7FEE0E70000AD0BA5
:10A04000036803F01F025B09026004D0012B034880
:10A0500018BF002070474FF0A04070470003005029
:10A060002DE9F04FDFF85C9185B01546824600EB94
:10A0700081014FF00108514503D1002005B0BDE832
:10A08000F08FDAF8003003F07F04C3F343277F2C0E
:10A090004FEA134308BF4FF0FF34222B00F28F80AA
:10A0A000DFE803F01219213B24353B8D8D8D8D3E69
:10A0B0006A8D8D8D8D8D8D8D8D8D8D8D8D8D8D8DF3
:10A0C0008D6D7376797C7F00C5F80C45621C6BD171
:10A0D0000AF1040ACFE7C5F81445631CF8D000263E
:10A0E0004FF0000B25E0C5F80845EFE7631CC5F805
:10A0F0000845EDD0002603A80394FFF7A1FF039BBA
:10A1000008FA03F3C0F80C354FF0010B11E0661CA0
:10A11000C5F80C45DCD00126EDE7C5F81045DCE7B5
:10A12000C5F80845002FD8D1601CD1D00026B34611
:10A130000627DAF80030019303F40052002A03A83E
:10A140001CBF01264FF0000B0394FFF779FF039A21
:10A15000019B00EB8200C3F3C114D0F800273B023F
:10A1600043EA840343EA0B0302EA0902134343EA86
:10A170004603C0F80037ABE7C5F80C45D2E7C5F891
:10A180002445621CA4D00126AAE7C5F828459DE70E
:10A19000C5F83045F5E7C5F83445F2E7C5F8384568
:10A1A000EFE7C5F83C45ECE703A80394FFF748FF49
:10A1B000039B08FA03F3C0F808350126A4E76FF003
:10A1C00085005BE7F0F8FCFFF0B54B79012B26D05A
:10A1D000032B21D110258B79032B1DD1CE790EB104
:10A1E000012E19D10A7912B1022A15D10E220B685B
:10A1F0004468B3F5164F276867D02DD8B3F5165FBE
:10A2000066D016D8B3F5966F64D00AD8B3F5967FAA
:10A2100063D0B3F5167F63D06FF0850054E000255E
:10A22000D9E7B3F5166F5ED0B3F5965FF4D1384B2E
:10A230003CE0B3F5E14F59D007D8B3F5615F57D093
:10A24000B3F5964FE8D1334B30E047F61224A342E2
:10A25000E2D14FF4000329E0B3F5613F4AD013D8AF
:10A26000B3F5963F49D009D84DF6C024A34246D055
:10A27000B3F5614FD0D14FF46B0317E0B3F5E13F75
:10A28000CAD14FF0EB7311E0B3F5612F3AD008D883
:10A29000214CA34239D0B3F5E12FBDD14FF0E86393
:10A2A00004E01E4CA342B7D14FF080530469C7F8B5
:10A2B0002435436835431B682A43C3F86C2503C91A
:10A2C000231D83E803000020F0BD4FF41D03EDE7DC
:10A2D000134BEBE74FF49E23E8E74FF4A033E5E799
:10A2E0004FF41C33E2E74FF41D23DFE70D4BDDE7AE
:10A2F0000D4BDBE74FF06C73D8E70C4BD6E74FF410
:10A300006503D3E74FF07063D0E74FF08063CDE78C
:10A3100000B0130000A04E0090D0030040420F0098
:10A320000050270000C0750000F03A0000903A018C
:10A330002DE9F7438046002201210220FEF7E8F8CC
:10A340000220FEF7B5F8D8F80470D8F810603C6821
:10A350000021C4F80015C6F80080D7F80C9001AAB7
:10A36000484604F082F9051E4CDB019BD9F8002019
:10A3700019791868FFF774FE051E43DB311D40464E
:10A38000FFF722FF054600283CD17B68990712D5CC
:10A3900006F11C0001F0AAF81E4B984236D1307F1E
:10A3A00004F10C0204F5907104F001FB337F0120ED
:10A3B000984000F0D9FB0823C4F800353B7A53B924
:10A3C000C4F81031D4F81031B369C4F8343501231E
:10A3D000C4F8383523607B689A075CBF4FF48073FC
:10A3E000C4F804337B68DB0644BF4FF48003C4F831
:10A3F00004337369C4F844350023C4F84835012395
:10A40000A360E360284603B0BDE8F0836FF0040565
:10A41000F8E700BF0000AD0BF8B5044607690D462C
:10A4200004F0A5FCB0B9214B1B789BB16426606891
:10A4300004F0FDF900BB012004F0B7FA013EF6D1AB
:10A440000021212002F01EFFF0E781F31188BFF305
:10A450006F8FF5E74FF02003EFF3118183F312883C
:10A46000BFF36F8F60680E4604F0E1F990B981F395
:10A470001188BFF36F8FEDE74FF02003EFF31181E9
:10A4800083F31288BFF36F8F60680E4604F0CFF934
:10A490000028DAD07B691D7079690122204604F01A
:10A4A00006F986F31188BFF36F8FF8BDA71400205B
:10A4B00070B5012383400E4ABFF35B8FDC4352E843
:10A4C000001F01EA040542E80056002EF7D1BFF351
:10A4D0005B8F4FF4803282400648C0F80823BFF3F8
:10A4E0005F8FBFF36F8F0B4214BF0120002070BD40
:10A4F000CC1100200010014070B40E49D1E90034A5
:10A50000D01AC31844F1000422F07F46C1E9003498
:10A51000A6F50013B3F5400F09D2074B1B681A0AC2
:10A520001B069C19054B42F10005C3E9004570BCB0
:10A5300003F02AB8F0040020D0110020F804002015
:10A5400011B3BFF35B8F0123104A834052E800CF61
:10A550004CEA030C42E800C10029F7D1BFF35B8F3E
:10A560000B4A4FF480338340C2F80433094BBFF3E6
:10A570005B8F1B68BFF35B8FC340DB0742BF064B9B
:10A580004FF40032C3F80021704700BFCC11002007
:10A5900000100140C811002000E100E00D4B1868D8
:10A5A000010A0006BFF35F8F0B4BD3F80435181870
:10A5B00041F10001B3F5801F0AD2084BD3E9002313
:10A5C000904271EB030303D210F1807041F100015E
:10A5D000704700BFD011002000100140F804002097
:10A5E0002DE9F04F85B016461F469DF840A0044661
:10A5F000FFF75EFF0190FFF7D1FFB04271EB070359
:10A6000054D23E4B301A67EB0101984271F10001C0
:10A610004FD23B4B03EB0413D3E902239F4208BF05
:10A6200096425ED037494FF4803804F1500508FA5D
:10A6300004F8AD00C1F848832046ADB204F0A4F997
:10A6400026F07F4B05F1804504F5A87305F58835A4
:10A65000DC464FF003090293029A2CF07F4341F845
:10A660002230C1F84483D1F80435274A6FF0020044
:10A67000C01A604420F07F40904232D9286868B107
:10A68000D1F804350393A3EB0B0020F07F40B0F525
:10A69000000F26D9204604F077F9039BBAF1000F8A
:10A6A00007D109EB030C09F10109D5E7BAF1000F55
:10A6B00009D06FF0150520460199FFF741FF2846A4
:10A6C00005B0BDE8F08F0123104ABFF35B8FA340B4
:10A6D00052E8000F184342E800010029F8D1BFF307
:10A6E0005B8F07490E98230101EB0412C8500F9BA2
:10A6F0005360C2E902670025DDE700BF010080006A
:10A70000E004002000100140FDFF7F00C811002080
:10A710007FB51C4C1C4BC4F80833C4F848331B4BA2
:10A7200000254FF0FF304FF0FF31C4F80855C3E962
:10A7300002014FF48033C4F80433154B02264FF462
:10A7400000320121C4F804631120C3F880212A4695
:10A75000FDF7DEFE1120FDF7ABFE0E4A0123A360DC
:10A76000236013600C4B0D4A0093CDE90155002383
:10A770002846FFF735FF3046FFF774FA284604B045
:10A7800070BD00BF0010014003000F00E004002076
:10A7900000E100E0CC110020F9A40200FFFF7F00DF
:10A7A0002DE9F7432F4CD4F8043399070BD5D4F88F
:10A7B000043143B12C4A0023C4F80431D4F80431E5
:10A7C000136801331360D4F80433DA032AD5BFF3D6
:10A7D0005B8F264B53E8002F22F0010143E8001065
:10A7E0000028F7D1BFF35B8FD30702D4D4F84031F0
:10A7F000C3B10025C4F84051D4F84031FFF7CEFE74
:10A800004FF02003EFF3118283F31288BFF36F8FB1
:10A81000174BD3E90267B042B94106D282F31188DF
:10A82000BFF36F8F03B0BDE8F0834FF0FF384FF0F8
:10A83000FF39C3E90289D3E900101D604FF480336A
:10A84000C4F84833C4F84051D4F8403182F3118839
:10A85000BFF36F8F0029E5D0009032463B46284673
:10A860008847DFE700100140D0110020C811002008
:10A87000E00400201FB5431C23D0012823DD134A28
:10A88000134B9042D4BF04461C46FFF787FE114B82
:10A890000F49D3E90023801AB0F5000F28BF002428
:10A8A00004448C4228BF0C46A2180B4900914FF07B
:10A8B0000000CDE9010043F10003FFF791FE04B071
:10A8C00010BD034CE1E70124DFE700BFFEFF7F007E
:10A8D000FFFF7F00F0040020F9A4020008B5FFF795
:10A8E0005DFE024B1B68C01A08BD00BFF0040020CB
:10A8F0004FF08053D3F83021082A06D1D3F83431F1
:10A90000052B02D8024AD05C70470020704700BF78
:10A9100044FB0200024AD2F80034002BFBD07047FF
:10A9200000E0014010B54FF08053D3F83021082AE1
:10A930004ED14FF080420021C2F80C11C2F8101124
:10A94000C2F8381502F54042D3F80414C2F82015B5
:10A95000D3F80814C2F82415D3F80C14C2F828153B
:10A96000D3F81014C2F82C15D3F81414C2F830150B
:10A97000D3F81814C2F83415D3F81C14C2F84015D3
:10A98000D3F82014C2F84415D3F82414C2F848159B
:10A99000D3F82814C2F84C15D3F82C14C2F850156B
:10A9A000D3F83014C2F85415D3F83414C2F8601533
:10A9B000D3F83814C2F86415D3F83C14C2F86815FB
:10A9C000D3F84014C2F86C15D3F84434C2F870358B
:10A9D000FFF78EFF18B13A4B3A4AC3F88C26FFF7BF
:10A9E00087FF18B1384BFB22C3F81825FFF780FF0B
:10A9F00070B14FF080414FF08053D1F8E42ED3F87E
:10AA0000583222F00F0203F00F031343C1F8E43E63
:10AA1000FFF76EFF20B12D4B4FF40072C3F84026B4
:10AA20004FF08053D3F83031082B1AD14FF08043C8
:10AA3000D3F80024D20744BF6FF00102C3F800240A
:10AA40004FF08053D3F83431052B02D8204AD35C21
:10AA50003BB14FF01023D3F808224FF08043C3F8E6
:10AA600058254FF01023D3F80022002A03DBD3F837
:10AA70000432002B22DA174901234FF01020C1F8CD
:10AA800004351224FFF746FFC0F80042FFF742FFEB
:10AA9000C0F80442FFF73EFF0023C1F80435FFF77A
:10AAA00039FFBFF34F8F0C490C4BCA6802F4E062C8
:10AAB0001343CB60BFF34F8F00BFFDE710BD00BF56
:10AAC000005000404881030000F000400090024028
:10AAD0003EFB020000E0014000ED00E00400FA054A
:10AAE00030B50468CCB1BFF35B8FB4FA84F3C3F123
:10AAF0001F03DBB201229A4024EA020250E8005F01
:10AB0000A54204D140E8002CBCF1000FF6D1BFF300
:10AB10005B8FE6D102480B7030BD0248FCE700BFF6
:10AB20000000AD0B0200AD0B10B50368CB40DB0796
:10AB300014D401238B400268BFF35B8F43EA020108
:10AB400050E8004F944204D140E8001CBCF1000FD3
:10AB5000F6D1BFF35B8FEED1014810BD0148FCE791
:10AB60000000AD0B0400AD0B014BC3F804057047AA
:10AB700000F00140F7B5044618B1012823D003B016
:10AB8000F0BD4FF080430222C3F80823C3F804014C
:10AB9000D3F804210122DA60064601238DF807303C
:10ABA00042F210754FF08047D4B1012CE7D1D7F8AD
:10ABB0000C3403F48033AEBB83B3012003F0F5FE05
:10ABC000013DF4D12AE04FF080430022C3F808038E
:10ABD000C3F80021D3F8002158600DF10706DCE727
:10ABE000D7F8183403F480333EB9002BC7D00120C6
:10ABF00003F0DBFE013DF3D1C1E7D7F8182402F0E2
:10AC000003023260002BBAD09DF80700012803D15F
:10AC100003F0CBFE013DC7D1012CB0D1054B002282
:10AC20005A71ACE7D7F80C2402F001023270002B05
:10AC3000EAD1F3E7D4110020044B1A7922B901229A
:10AC400018609A800248704702487047D41100206B
:10AC50000000AD0B0C00AD0B08B50020FDF74AFC61
:10AC600008B9FDF725FC4FF080430022C3F81825F2
:10AC7000014B01221A7008BDA114002010B54FF03D
:10AC80008043D3F800216AB10022C3F80021D3F831
:10AC900000210122C3F80823114B587910B95A71C9
:10ACA0001B6898474FF08043D3F8042172B100220B
:10ACB000C3F80421D3F80421D3F81824D3F81824B6
:10ACC000920704D10122C3F818259A6010BD022210
:10ACD000C3F80823024BBDE810401B680120184749
:10ACE000D4110020036803F01F025B09026004D046
:10ACF000012B034818BF002070474FF0A040704759
:10AD00000003005070B500F108030C4C34F8133008
:10AD1000DA0505460E4607D5C3F3432304EBC30209
:10AD200054F8333052689847A3682BB1E268314633
:10AD30002846BDE87040184770BD00BFF0010020F4
:10AD400010B4124A083032F81030D9051BD5C3F3BD
:10AD5000432123F4F85322F8103002F10E040020AE
:10AD600034F8023F13F4807F03D0C3F343239942A6
:10AD700009D001303028F3D1002342F831300448A3
:10AD800010BCFFF7D1BE10BC704700BFF00100201F
:10AD900064020020F0B50146104A114C0020012544
:10ADA000064602F14043A3F5C2439B0805FA03F3AC
:10ADB000194204D0176817B1166017681843043297
:10ADC000A242EED1074BD3F87C2132B10022C3F866
:10ADD0007C21D3F87C3140F00040F0BD00610040A0
:10ADE00020610040006000402DE9FF411D460446FF
:10ADF00016460B46E9B14D4F00F1080837F8182008
:10AE000002F02202222A20D00022CDE900228DF871
:10AE10000E208DF80F200DF10E010DF10F0203F041
:10AE20000EFE37F8183023F0020343F0010327F831
:10AE3000183046B33D4B96F800C0726804F108071D
:10AE400033F81710880702D5AAB139481DE021F060
:10AE50002001C904C90C23F8171062B1BCF1030F1B
:10AE6000F3D872681678BCF1000F11D1314A06F59B
:10AE7000A27642F826C033F8172022F01C0242EADC
:10AE80008C0223F8172045BB2B4804B0BDE8F081A5
:10AE9000B20002F1804202F5C04241EA4631D2F8E6
:10AEA000100520F00300C2F81005D2F8100520F4B8
:10AEB0004F3020F44070C2F810052002D2F810E59F
:10AEC00000F47C5040EA0C4040EA0E0041F02001C2
:10AED00023F81710C2F81005CDE7D5E90067204622
:10AEE000FFF72EFF002ECFD0104DD5E9002396425C
:10AEF00001D19F4218D011480DF10F01FFF7F0FD6D
:10AF00000D4B9842C1D19DF80F2045F8326005EBFA
:10AF1000C20308345F6035F8143043EA422343F437
:10AF2000807325F81430AFE70022EEE7F00100202F
:10AF30000400AD0B006000400000AD0B6402002077
:10AF4000F0B5044685B0154609B300F10807314E47
:10AF500036F81730980701D49A0658D413F01C0F0E
:10AF600002D04B78012B52D001238DF80F300023F3
:10AF7000CDE900134A1C8B1C20460DF10F0103F094
:10AF80005EFD36F8173043F0030326F8173015B985
:10AF9000214805B0F0BD1F4E04F1080736F8170030
:10AFA000830734D595F800C06146890020F0200061
:10AFB00001F18041C00401F5C041C00C26F8170022
:10AFC0000023C1F810356A78002AE1D0D1F8103595
:10AFD000AD7823F4991323F4F853C1F81035D1F860
:10AFE00010E5230203F47C53120443EA0E0302F437
:10AFF00040322D05134305F4801540EA4C302B43B5
:10B0000040F0200026F81700C1F81035C0E70348CB
:10B01000BFE700BFF00100200000AD0B0400AD0B46
:10B02000014BC3E902017047F00100200830054BD5
:10B0300033F810309A0643BF5B0B03480B7003488C
:10B04000704700BFF00100200000AD0B0400AD0B05
:10B0500070B50F4C94F87860BEB90E4D6022314641
:10B0600004F1100003F065F9C5F87C610620D5F8FD
:10B070007C31FDF71DFA4FF00043C5F80433064854
:10B08000012384F87830636770BD0448FCE700BF93
:10B09000F0010020006000400000AD0B0500AD0B8A
:10B0A000034B93F87800003818BF0120704700BFA9
:10B0B000F001002001460148FFF736BD6002002084
:10B0C00001460148FFF70CBD6002002037B5204B58
:10B0D00000F10802044633F812309A061DD513F029
:10B0E00002051AD15B0B9A0002F1804000F5C240C4
:10B0F00002F1804202F5C04205600068D2F81005F6
:10B1000040F00100C2F8100529B1012202FA03F350
:10B11000104AC2F8043303B030BDC3F38203042BDA
:10B1200012D0052B12D001A80194FFF7DBFD019B83
:10B13000D0F81015D94001F001010231204603B0CA
:10B14000BDE8304003F0C4BC0321F7E70221F5E776
:10B15000F0010020006000400E4B00F1080233F8BF
:10B160001230990613D59A0711D45B0B01229A402D
:10B170009B00094903F1804303F5C043C1F808234C
:10B18000D3F8102522F00302C3F8102570470021E0
:10B1900003F09EBCF00100200060004073B5174D25
:10B1A00000F10806044635F81630D90724D5FFF714
:10B1B000D3FF35F816309A0606D55B0B104A03F517
:10B1C000A273002142F823102046FFF7B9FD0023A7
:10B1D00001A825F816300194FFF784FD019B00EBD0
:10B1E0008300084BD0F80027134043F00203C0F857
:10B1F0000037054802B070BD0448FBE7F0010020AD
:10B2000000600040F0F8FCFF0000AD0B0400AD0B47
:10B210002DE9F04F624BD3F80403C0B287B040F081
:10B220000040FFF7B7FD051E80F29C804FF0A04361
:10B23000DFF87081D3F820250492C3F82025D8F8D0
:10B2400020350593C8F820354FF000090DF1100A9C
:10B250004FEA491300934FF0010B49E0009B524A1B
:10B2600094FAA4F4B4FA84F41C44E00804F108034A
:10B27000039432F813701AF8003004F007020BFA46
:10B2800002F223EA02030AF8003003A8FFF72AFDBE
:10B29000039B03F5E073B90850F82330C7F3820627
:10B2A0004A073746C3F301432CD520463946DEB260
:10B2B000FFF728FD03A80394FFF714FD039B03F594
:10B2C000E07350F82330C3F301439E4207D10021BD
:10B2D000204603F0FDFB3146204603F0F9FB03A8AE
:10B2E0000394FFF7FFFC039B0BFA03F3C0F8203530
:10B2F0005AF82940002CB1D1B9F1000F1DD14FF0FF
:10B300000109A5E7022B0CD10321204603F0E0FB45
:10B3100006F00503012BE2D139462046FFF7F2FC87
:10B32000DDE702212046019303F0D2FB032EF3D088
:10B33000019B032BD3D1022EEDE74FF00040FFF726
:10B3400029FD4FF0A042D2F820350493C2F82035F1
:10B35000D8F8202505921343C8F820257FF474AF50
:10B3600025F00045012415B907B0BDE8F08F95FA26
:10B37000A5F3B3FA83F304FA03F29B0003F18043CD
:10B3800003F5C04325EA0205D3F81005D3F81015DC
:10B39000C0F30520C1F30141FFF7B4FCE3E700BFB0
:10B3A0000060004000030050F001002010B5184C70
:10B3B000237853BB0278C2F34003920712D54FF0B3
:10B3C0008053D3F83021082A0BD1D3F83431052B20
:10B3D00007D8104AD35C23B14FF080430122C3F851
:10B3E000382601234FF08042C2F88035037803F0FD
:10B3F0000103C2F878350020FDF77CF808B9FDF7A5
:10B4000057F801230448237010BD0448FCE700BF2F
:10B41000A214002061FB02000000AD0B0C00AD0B7C
:10B420004FF080434FF46072C3F80823014B0022B1
:10B430001A607047DC11002008B5FFF7F1FF0368C0
:10B440000BB1014A136008BDDC11002010B54FF0AC
:10B450008043D3F80443620707D54FF4847003F0A8
:10B4600046FB10B11E4B1B689847A30608D54FF446
:10B470008A7003F03CFB18B11A4B00201B689847F8
:10B48000600608D54FF48C7003F031FB18B1154BF2
:10B4900001201B689847210608D54FF48E7003F0F1
:10B4A00026FB18B1104B00201B689847E20508D511
:10B4B0004FF4907003F01BFB18B10B4B01201B687D
:10B4C0009847A3050AD54FF4927003F010FB28B1FA
:10B4D000054BBDE810401B680220184710BD00BF97
:10B4E000E4110020E0110020DC1100200146014899
:10B4F000FFF7F6BA6C0200204FF08053D3F83021EA
:10B50000082A06D1D3F83431052B04D8034AD05C7D
:10B510007047002070470120704700BF70FB020099
:10B52000054B10F0800FA3F1900208BF134600F006
:10B530000F0003EB001070479013002007B5074A77
:10B5400000231370064A137001230193054B01A8D1
:10B550001B68984703B05DF804FB00BFA5140020EA
:10B56000A41400202814002013B5194BD3F800446C
:10B57000C3F80044E105D3F8003408D5154B012287
:10B580001A7002230193144B01A81B689847A20567
:10B5900008D5104B00221A70032301930E4B01A80B
:10B5A0001B689847630510D50A4B1A786AB10022C8
:10B5B0001A70074B0122C3F808259A659B6D042376
:10B5C0000193054B01A81B68984702B010BD00BF4E
:10B5D00000700240A5140020281400204FF0200322
:10B5E000EFF3118083F31288BFF36F8F0A4BD3F808
:10B5F000001C032261B949F27531C3F8001CC3F87D
:10B60000142DC3F8001C80F31188BFF36F8F7047AF
:10B61000C3F8142DF7E700BF00E006404FF0200309
:10B62000EFF3118083F31288BFF36F8F0A4BD3F8C7
:10B63000001C61B949F27532C3F8002CC3F8141D1F
:10B64000C3F8002C80F31188BFF36F8F704700227E
:10B65000C3F8142DF6E700BF00E00640F8B54B68CC
:10B660000B4F9A4228BF1A460C46154606460968F3
:10B67000384602F053FEC6E9007560682368401B37
:10B680002B4460602360003818BF0120F8BD00BF64
:10B69000E811002070B54B689A4228BF1A4606464A
:10B6A0000D46144682B10968084802F037FE074B80
:10B6B000C6E900346B681B1B6B602B682344201E9B
:10B6C0002B6018BF012070BD1346F1E7E811002080
:10B6D00007B500238DF804300B4BD3F82025ADF8C7
:10B6E0000620D3F8C034094A002B136814BF4FF06A
:10B6F00001214FF480710B431360054B01A81B68B7
:10B70000984703B05DF804FB007002402414002049
:10B7100028140020064BBFF35B8F53E8001F014045
:10B7200043E80012002AF8D1BFF35B8F704700BFD7
:10B73000201400204FF08053D3F83031082B02BF83
:10B74000034B0022C3F81C2C024B00221A707047D6
:10B7500000700240A314002008B5FFF7EBFF084B70
:10B7600093F89E20032A05D1BDE808406FF0010040
:10B77000FFF7D0BFD3F89030002BF5D008BD00BF45
:10B780000013002073B5012202FA01F51C491D4E79
:10B790000B6810F0800F43EA050304460B6024D0C9
:10B7A00000F00F02184B33F8123003F1804303F519
:10B7B0001C331A6832B100221A6080281B6811D02D
:10B7C00003F0FDF933682B400AD106228DF80420DE
:10B7D0008DF806408DF807300C4B01A81B68984780
:10B7E00002B070BDFFF7B8FFECE733681D42F7D138
:10B7F00006238DF804308DF806008DF80720EBE75E
:10B8000024140020201400203AF9020028140020FB
:10B8100008B5054B1A78104603F0C8F9BDE8084092
:10B8200001461046FFF7AEBFA414002007B5FFF78E
:10B8300081FF0C4B93F88E20032A10D0D3F8803070
:10B840006BB96FF08070FFF765FF06238DF8043049
:10B850000823ADF80630044B01A81B68984703B0D5
:10B860005DF804FB001300202814002007B5FFF743
:10B8700061FF104B93F81E21032A06D16FF48070EC
:10B8800003B05DF804EBFFF745BFD3F810316BB997
:10B890006FF48070FFF73EFF06238DF80430882395
:10B8A000ADF80630044B01A81B68984703B05DF85B
:10B8B00004FB00BF0013002028140020024A0023CC
:10B8C0001360024A1370704728140020A614002049
:10B8D00008B54C4B4FF40062C3F80024D3F8003491
:10B8E000FFF70AFE08B1FFF779FE4FF08053D3F857
:10B8F0003031082B19D14FF02003EFF3118083F37F
:10B900001288BFF36F8F404BD3F8001CC022002970
:10B9100070D149F27531C3F8001CC3F8142CC3F878
:10B92000001C80F31188BFF36F8F364B0122C3F8E0
:10B930000025D3F80025D3F800241205FBD54FF4D9
:10B940000062C3F80024D3F800344FF08053D3F8DA
:10B950003031082B18D14FF02003EFF3118083F31F
:10B960001288BFF36F8F284BD3F8001C002944D1F5
:10B9700049F27532C3F8002CC3F8141CC3F8002C2C
:10B9800080F31188BFF36F8FFFF7B6FD30B1FFF77B
:10B9900045FEFFF7B1FD08B1FFF720FE4FF08053E1
:10B9A000D3F83031082B174B0AD140F2E372C3F8B9
:10B9B00000284022C3F80428BFF36F8FBFF34F8FD6
:10B9C00000218022C3F81C25C3F830150F4B40F22C
:10B9D000FF121A600E4B1960FFF7ACFE0D4B197089
:10B9E0000D4B02221A70FFF787FD50B1BDE80840E9
:10B9F000FFF714BEC3F8142C93E70022C3F8142CED
:10BA0000BEE708BD0070024000E00640241400209C
:10BA100020140020A4140020A61400200A4B0022A9
:10BA200010B51A70094A0A4B0A4C002808BF134681
:10BA3000C4F804332720FCF73BFD0123C4F8043588
:10BA4000D4F8043510BD00BFA51400200714C001B0
:10BA50000714E00100700240034B1878012894BFDE
:10BA600000200120704700BFA614002010B54FF041
:10BA70002003EFF3118183F31288BFF36F8F0F4B15
:10BA80001B7803F0FF0093B10D4BD3F8002412F4A0
:10BA900000720CD10124C3F82C45D3F82C45D3F8FF
:10BAA0000044A40504D5C3F82C25D3F82C35002078
:10BAB00081F31188BFF36F8F10BD00BFA514002064
:10BAC00000700240F8B51C4B1C7894BB1B4A1060F8
:10BAD00001221A7040F2FF17264664F07F0514F029
